:1000000083C400009EC400009CC400009AC4000089
:1000100098C4000096C4000094C4000092C400007C
:1000200090C400008EC400000C9493260C947B278F
:100030000C94201486C4000084C4000082C4000014
:1000400080C400007EC400007CC400007AC40000AC
:1000500078C400000C946F2674C4000072C40000C1
:1000600070C400006EC400006CC400006AC40000CC
:1000700068C4000066C4000064C4000062C40000DC
:1000800060C400005EC400005CC400005AC40000EC
:1000900058C4000056C4000054C4000052C40000FC
:1000A00050C400004EC400004CC400000501090209
:1000B000A10185020901A1000509190129081500FE
:1000C0002501950875018102050109300931158165
:1000D000257F95027508810609381581257F9501D0
:1000E00075088106050C0A38021581257F95017572
:1000F000088106C0C005010980A101850319012AF4
:10010000B700150126B700950175108100C0050CD8
:100110000901A101850419012AA002150126A002E6
:10012000950175108100C005010906A1018506052C
:100130000719E029E71500250195087501810205D9
:1001400007190029EF1500250195F07501810205B9
:10015000081901290595057501910295017503910D
:1001600001C00660FF0961A1010962150026FF00B8
:100170009520750881020963150026FF00952075FA
:10018000089102C005010906A101050719E029E748
:1001900015002501950875018102950175088101F9
:1001A0000507190029FF150026FF0095067508812F
:1001B000000508190129051500250195057501910E
:1001C00002950175039101C009025B00030100A0C3
:1001D000FA090400000103010100092111010001D5
:1001E00022440007058103080001090401000203FD
:1001F00000000009211101000122220007058203ED
:100200002000010705030320000109040200010387
:1002100000000009211101000122B6000705840336
:10022000200001120100020000000827170400014D
:100230000001020001220374007200610063006B80
:1002400000620061006C006C005F006D006F006474
:100250000075006C00650000000C0361006B006914
:100260000032003700000004030904D100D200D39B
:100270000004000500060004000500060004000557
:100280000006004E004B004E004B004E004B004E4F
:10029000004B002020200020200043504920202F28
:1002A000205363446976202F20416E676C650A00F5
:1002B000437572736F720A005363726F6C6C0A003D
:1002C0004D6F6465203A2000556E6465660A004DE6
:1002D0006F7573650A0052616973650A004C6F7728
:1002E00065720A00426173650A004C617965723A71
:1002F000200000AE00AF0000000000003E5B4F5B3E
:100300003E003E6B4F6B3E001C3E7C3E1C00183C8A
:100310007E3C18001C577D571C001C5E7F5E1C0035
:1003200000183C180000FFE7C3E7FF00001824187E
:100330000000FFE7DBE7FF0030483A060E00262901
:1003400079292600407F05050700407F05253F00ED
:100350005A3CE73C5A007F3E1C1C0800081C1C3E0F
:100360007F0014227F2214005F5F005F5F00060998
:100370007F017F00006689956A00606060606000B0
:1003800094A2FFA2940008047E04080010207E209E
:10039000100008082A1C0800081C2A0808001E1063
:1003A000101010000C1E0C1E0C0030383E383000AF
:1003B000060E3E0E060000000000000000005F0078
:1003C0000000000700070000147F147F1400242A97
:1003D0007F2A120023130864620036495620500019
:1003E000000807030000001C224100000041221CFD
:1003F00000002A1C7F1C2A0008083E080800008014
:100400007030000008080808080000006060000064
:100410002010080402003E5149453E0000427F4042
:1004200000007249494946002141494D33001814E2
:10043000127F10002745454539003C4A49493100A3
:1004400041211109070036494949360046494929E1
:100450001E000000140000000040340000000008EE
:100460001422410014141414140000412214080032
:100470000201590906003E415D594E007C121112DD
:100480007C007F49494936003E41414122007F417D
:1004900041413E007F49494941007F090909010066
:1004A0003E41415173007F0808087F0000417F41B1
:1004B00000002040413F01007F08142241007F409E
:1004C000404040007F021C027F007F0408107F0034
:1004D0003E4141413E007F09090906003E4151214C
:1004E0005E007F0919294600264949493200030167
:1004F0007F0103003F4040403F001F2040201F007D
:100500003F4038403F00631408146300030478043C
:1005100003006159494D4300007F414141000204FD
:1005200008102000004141417F0004020102040044
:100530004040404040000003070800002054547829
:1005400040007F284444380038444444280038445C
:1005500044287F0038545454180000087E090200D3
:100560001824241C78007F080404780000447D408F
:1005700000002040403D00007F1028440000004162
:100580007F4000007C04780478007C080404780034
:100590003844444438007C182424180018242418B3
:1005A0007C007C08040408004854545424000404CB
:1005B0003F4424003C4040207C001C2040201C0084
:1005C0003C4030403C004428102844004C9090901F
:1005D0007C004464544C4400000836410000000094
:1005E000770000000041360800000201020402000A
:1005F0003C2623263C000000000000000000C060F4
:10060000C0D0C8E86C6464646C686898D06000808E
:10061000000000000000000000808080000000005A
:10062000000000008080800000000000000000004A
:10063000808080000000000000000000808000003A
:100640000000000000E0E00000000000000000C02A
:10065000E0E0E000000000000080E0E0200000009A
:10066000000000000000000000000000000000008A
:1006700000000000E0F0F0F0E0ECEEF7F370200096
:100680007C7C7C7E007E7E7E7F7F7F000080C0E061
:100690007E5B4F5BFEC00000C000DCD7DEDEDED735
:1006A000DC00C000000000000000000000000000AE
:1006B000000000000000000000000000FC8778FE41
:1006C000FE010178848202028686030187FFFC0313
:1006D000FE00000000FCFECF0303030387C7860073
:1006E00078FEFF8703030303CFFEFC0038FEFF877D
:1006F00003030303C7868400FCFE87030303038709
:10070000FEFC300303FFFF8303000070787E6F63FD
:1007100061FFFF606000F0FCFF0F0F0E8EFCF860C1
:10072000003030303030FFFF30303030000000001B
:10073000000000000F1F3F7F7F7F7F7F3F1E0C0068
:100740001F1F1F3F003F3F3F7F7F7F00307B7F7831
:1007500030202030787F3B0003000F7F0F0F0F7F8A
:100760000F00030000000000000000000000000077
:100770000000000000000000000000000003041959
:100780003F27425858D99999D85D5F6E2C190C07AC
:100790000100000000000103030303030303010041
:1007A0000001010303030303030100000000010330
:1007B0000303030303010000000103030303030316
:1007C000010000000001030303000000000000001E
:1007D00000030300000000010303030303030100FF
:1007E0000000000000000303000000000000000003
:1007F00000000000000000000000000000000000F9
:1008000000000000000000000000000000000000E8
:1008100000000000000000000000000000000000D8
:1008200000000000000000000000000000000000C8
:1008300000000000000000DA0281FFD9F1DB20A4F3
:10084000A62EAF00A0C0D30000A1C8D30000AED533
:1008500080A81F408D142000000000000000000050
:100860000000000000000000000000000000000088
:100870000000000000000000000000007E0F00D417
:10088000FFFFFFC70000007800000000000000002C
:100890002A2B2800000000000000000000000000DB
:1008A00000000029000000002C1E342021222434E6
:1008B0002627252E362D3738271E1F2021222324B8
:1008C00025263333362E37381F0405060708090A54
:1008D0000B0C0D0E0F101112131415161718191AF0
:1008E0001B1C1D2F3130232D350405060708090A6E
:1008F0000B0C0D0E0F101112131415161718191AD0
:100900001B1C1D2F3130354C11241FBECFEFDAE0F8
:10091000DEBFCDBF11E0A0E0B1E0E2EDFEE502C038
:1009200005900D92AA3DB107D9F725E0AAEDB1E0F7
:1009300001C01D92A532B207E1F70E9417210C9465
:10094000F12E5ECB982F92959F7061F420E0982F46
:10095000892F8695869511F02E5F982F892F869581
:10096000820F089524E0F4CFCF93C82FEBDF81509E
:1009700091E0823008F090E090931E058C2FCF918B
:1009800008958093D3040895EFDF8093D4040895ED
:1009900021E001C0220F8A95EAF78091D404822BCE
:1009A000F3CF21E001C0220F8A95EAF7822F8095CC
:1009B0009091D4048923E8CFCF93C1E061FDC4E0D6
:1009C00060FDCC0F62FDC29593E0769567959A9590
:1009D000E1F79B01220F331F260F371F420F531FD2
:1009E000FA0140E050E090E06191DF019C01042EAB
:1009F00002C0369527950A94E2F72695220B262702
:100A00002C2326272E934F5F5F4F4330510561F70C
:100A1000CF910895A82FA77023E0969587952A95E2
:100A2000E1F79C01220F331F820F931F680F791F7C
:100A3000FB0140E050E080E0219130E00A2E02C04E
:100A4000369527950A94E2F72170042E01C0220FF3
:100A50000A94EAF7822B4F5F5F4F4330510561F7ED
:100A60000895282F862F911107C0622F70E04CEB5C
:100A700054E0233040F008959C5F9230E0F7622FFD
:100A800070E049EB54E098CF911106C06CEB74E034
:100A9000833038F0892F08959C5F923030F469EBF1
:100AA00074E090E0B7DF982FF5CF90E0F3CF90910E
:100AB000D40421E030E0F90101C0EE0F8A95EAF795
:100AC000D90101C0AA0F6A95EAF7EA2B01C0220FEB
:100AD0004A95EAF7892F8E23E81303C0892F822BCA
:100AE00053CF2095822F8923FBCFE091DA04909198
:100AF000D904E91302C080E008959F0157E0E59F03
:100B0000F0011124E552FB4F5181561306C050816C
:100B1000581303C05581541305C02F5F3F4FF9018F
:100B2000E770E7CF81E008958091DA042091D9043D
:100B3000281301C0089501968770FACF9091D504CB
:100B4000809589238093D504282F277061F4891715
:100B500051F09091D70492FF06C0869586958695B0
:100B600020DF1092D50408958091D0049091D8048C
:100B7000892B9091D1049115C9F0892B9091150181
:100B8000913021F49091D60497FD11C096E02EED9E
:100B900031E040E09150F90150812F5F3F4F5111FA
:100BA0004F5F9111F7CF41111092D10408959EE14A
:100BB00026EE31E0EECF8095982F8091D0048923E6
:100BC0008093D0040895803E9105D1F1C8F481331B
:100BD000910509F481C048F48932910509F471C086
:100BE0008A32910509F47FC0089589339105E1F0B7
:100BF00082389105C9F08533910509F45DC00895E7
:100C0000843E9105D1F148F4823E910531F1833E55
:100C1000910541F181EE90E00895863E9105C1F184
:100C2000873E9105F1F108952091D604237009F0D3
:100C300064C02091D70423FF14C089E290E0089596
:100C40002091D60420FD45C03091D70430FF09C063
:100C500024FD24C083EE90E008952091D60422FD67
:100C6000F7CF08952091D60422FD44C03091D704D7
:100C700030FD43C024FFF5CF11C02091D70421FFE0
:100C8000F0CF8091D60484FD09C087EE90E00895EE
:100C90002091D60423FFE5CF24FFF7CF80E090E03A
:100CA00008952091D60423FD2BC03091D70431FF45
:100CB000E1CF84EE90E008952091D60425FFD1CFB6
:100CC000BCCF2091D60425FD1EC02091D70423FF60
:100CD000C8CF89E390E008952091D60426FFC1CFC4
:100CE0008AE290E008952091D60426FFBACF81E3EE
:100CF00090E0089582EE90E0089580EE90E00895EF
:100D000086EE90E0089585E390E008959091D604F2
:100D100092FF10C041E0282F2471243009F040E0F8
:100D200031E0282F2871283009F030E0431711F006
:100D30002CE0822793FF10C041E0282F247124313A
:100D400009F040E031E0282F2871283109F030E027
:100D5000431711F02CE082273091D70430FF10C0E8
:100D600051E0282F2171213009F050E041E0282F77
:100D70002871283009F040E0541711F029E082274B
:100D800031FF10C041E0282F2171213109F040E0EE
:100D900031E0282F2871283109F030E0431711F095
:100DA00029E0822794FF02C083FD877E08950F9378
:100DB0001F93CF93DF9307DFEC01D23508F04DC0CE
:100DC000D03508F0C3C0C03ED10530F5CD3CD105CB
:100DD00008F09AC0C83AD10578F4C53AD10508F0B0
:100DE00090C0C130D10599F1CE010497813A9105A7
:100DF00070F1C0E0D0E02BC0CE01885A91094B972A
:100E0000C0F7C85AD0E0CC0FDD1FCD59DE4F099096
:100E1000D881C02DD4641BC0D03490F4D03208F0F7
:100E2000A8C0C83ED10598F0CE0191509F3108F777
:100E30008D2F6CDF082F8C2F90E0C5DE902B54C0D7
:100E40008C2F90E0C0DEDF70C82FD92BD06ACE0186
:100E5000DF91CF911F910F910895C03882E5D80797
:100E6000B8F5C03682E5D80708F056C0C03482E530
:100E7000D807C8F4C03282E5D80708F047C08C2FE5
:100E80008695869520E2829FC0011124C37021E0DF
:100E900030E002C0220F331FCA95E2F7E901C82BE8
:100EA000D92BDD68D4CF8C2F86958695877020E26C
:100EB000829FC0011124C37021E030E002C0220FE4
:100EC000331FCA95E2F7E901C82BD92BDC68BFCFE5
:100ED000C03C82E5D80750F48C2F8F71C03AD245C0
:100EE00080F5982F84EF906AEC01B1CFCE01805C41
:100EF0009245809708F07DCFDC2FDF71C0EFD06A7C
:100F0000A6CFA497D064A3CFD065A1CF8C2F8F712B
:100F1000D82FC1EFD06A9BCF8C2F8695869587708E
:100F200020E2829FC0011124C37021E030E002C0A2
:100F3000220F331FCA95E2F7E901C82BD92BDA68D3
:100F400086CFE4DEC0E0D82FD06281CF8C2F8F71A6
:100F5000DDDE93E0CC0FDD1F9A95E1F7DF70282FDF
:100F600084FF04C090E1899F90011124C22FD069B1
:100F70006ECF8D2F8F71CADE082F8C2F90E023DE6D
:100F8000902BEC01E1CF80E008952AB16E566F708E
:100F900081E001C0880F6A95EAF7982F9095922317
:100FA0009AB99BB1892B8BB9089589B190E06E569F
:100FB0006F7002C0959587956A95E2F781700895E4
:100FC000382F25EB3203C001112497FF04C080584D
:100FD0009109892F089580589F4FFBCF8091C104BC
:100FE00080FD14C081FD14C082FD16C08091C00434
:100FF000811581F08E3180F420E5829FC00111249B
:101000006EE170E00E94AC2B862F089584E1089574
:1010100088E2089588E0089580E508958091C104EC
:1010200080FD17C081FD17C082FD19C08091BF04EB
:10103000811599F0883298F428E0829FC00111242C
:1010400068E270E00E94AC2B6115710551F0862FAB
:10105000089562E0FCCF64E0FACF61E0F8CF68E089
:10106000F6CF81E00895E091AF04F091B00430979D
:1010700039F00190F081E02D309711F00995089535
:1010800080E00895E091AF04F091B004309759F0FA
:1010900026813781232B39F022E0DC012C93068056
:1010A000F781E02D09950895A3E0B0E0EAE5F8E0C6
:1010B0000C94792B20911D0230911E0228173907BC
:1010C000B1F080931D0290931E02E091AF04F09165
:1010D000B004309761F00084F185E02D309739F04D
:1010E00023E029838A839B83CE0101960995239669
:1010F000E2E00C94952BA3E0B0E0E1E8F8E00C947A
:10110000792B20911B0230911C0228173907B1F06E
:1011100080931B0290931C02E091AF04F091B00405
:10112000309761F00084F185E02D309739F024E0AC
:1011300029838A839B83CE01019609952396E2E059
:101140000C94952B90911501913099F0AEEDB1E092
:10115000EFEF90E02C91821759F01196EF3F19F4C0
:10116000211101C0E92F9F5F9630A1F7EF3FC1F435
:1011700008959091D60497FFE9CFE82FE695E6957C
:10118000E695803FA8F7F0E0EC51FE4F877021E034
:1011900001C0220F8A95EAF78281822B828308950B
:1011A000FE2FFF0FFF0BE452FE4FF8CF9091150179
:1011B000913021F49091D60497FD0CC0EEEDF1E052
:1011C0009191891302C0DF011E9291E0E43EF9077C
:1011D000B9F70895E82FE695E695E695803FC8F7BC
:1011E000F0E0EC51FE4F9DEF81FD97EF80FF95956C
:1011F00082FD92958281892382830895DC01FB011F
:1012000011969C9111978181981322C012968C910E
:101210001297811519F0928189131AC013968C9137
:101220001397811519F09381891312C015968C912B
:101230001597811519F0958189130AC014969C9110
:10124000911521F081E02481291303C080E001C0C1
:1012500081E0817008958091140108952FB7F8946A
:1012600060911702709118028091190290911A02F0
:101270002FBF089587E797E78093000890930108B0
:1012800088E19AE00FB6F894A895809360000FBEAD
:1012900090936000FFCFFC0120910D0230910E026F
:1012A0002617370748F06115710529F49091E80079
:1012B0009E779093E8009B0190E02115310541F461
:1012C000911106C08091E80082FF32C080E008954D
:1012D000809187048115C1F18530C1F18091E800CA
:1012E00083FD30C08091E80082FDECCF8091E80062
:1012F00080FFE3CF8091F3004091F200582F211539
:10130000310519F04830510558F091E04830510549
:1013100009F090E04091E8004E774093E800CDCF8F
:1013200081918093F100215031094F5F5F4FE7CFEA
:1013300080918704811541F0853041F08091E8006B
:1013400083FFC0CF81E0089582E0089583E008958F
:10135000982F9093E900891771F07091EC0020911B
:10136000ED005091F00021FD09C09F5F973089F793
:101370008093E9000895762F242F50E03091EB0000
:101380003E7F3093EB003091ED003D7F3093ED00D8
:101390003091EB0031603093EB007093EC002093C0
:1013A000ED005093F0002091EE0027FDDECF089570
:1013B0008091070287FF13C08091E80082FF06C07A
:1013C0008091E8008B778093E800089580918704EE
:1013D0008111F2CF0895809187048115D9F380910E
:1013E000E80080FFF8CF8091E8008E77ECCF209165
:1013F000E4003091E50095E6A9012091EC00822FF0
:10140000817020FF06C08091E80080FF06C080E068
:1014100008952091E80022FD1AC08091870481156B
:1014200089F0853089F08091EB0085FD0FC0209117
:10143000E4003091E50042175307F9F29150E1F6CC
:1014400084E0089582E0089583E0089581E008959E
:10145000CF93DF93C8EDD0E088818F7E8883E7ED5E
:10146000F0E080818160808384E082BF81E08093AE
:10147000060288818E7F8883E2EE10821092DA0065
:10148000A1EEB0E01C9288818F7788838881806884
:10149000888388818F7D888319BC1092870410927D
:1014A00005021092720410920402A0EE8C918B7FC0
:1014B0008C9388818160888342E060E080E048DF2F
:1014C000A1EEB0E08C918E7F8C93E2EEF0E0808113
:1014D00081608083808188608083E0EE80818E7F60
:1014E0008083888180618883DF91CF910895E8EDC2
:1014F000F0E080818E7F80831092E2001092DA000B
:101500001092E100A0EEB0E08C9181608C9380811C
:101510008F77808319BCA7ED8C918E7F8C9380810F
:101520008F7E808310920602089586988E9880E0C0
:1015300098E08F9825E02A95F1F7000022277E9900
:101540002395880F822B8F9A25E02A95F1F70000CA
:10155000915079F70895869A27E030E090E08F98CF
:10156000AC01022E02C0559547950A94E2F740FF60
:101570000EC08E9A4AE04A95F1F700C08F9A21502A
:10158000310968F785E18A95F1F7000008958E9892
:10159000F1CFCF93C62F29988068DDDF8C2FDBDF5A
:1015A000299ACF91089583E080931A0584E080936F
:1015B0001B0581E080931C0580931D0510921E057C
:1015C00043E054E061E071E08FE090E00E94D52EAE
:1015D00060E070E0AB0183E190E00E94D52E60E90D
:1015E00082E2D7CF61E08D37910548F06DE0863D0E
:1015F00026E0920720F46DE770E00E94552B6061B1
:1016000089E1C7CFCF9329988091470281110EC0FD
:1016100083E6A1DF8ADFC82F88DF982F299A8C2FD5
:10162000C7FD806897FD9068CF91089580E090E0B5
:10163000FBCFACE0B0E0EFE1FBE00C94772B4F8305
:101640005887162F072F8B879C87DCDF282F292BA5
:1016500011F4902F812F89879A8786E0FE013796B3
:10166000DE01119601900D928A95E1F729813A8168
:101670004B815C816D817E8180E090E02C96E4E07E
:101680000C94932B299867DF50DF95E09A95F1F73A
:101690000000299A0895CF93DF93879A869A219A1A
:1016A0006AE58AE376DF8FE79FEA22E08150904087
:1016B0002040E1F700C0000010924702A3DF80E065
:1016C000E1DFC82F81E0DEDFD82F8EE3DBDFC23120
:1016D00029F49D2FD13011F4863209F090E0892F42
:1016E0008170DF91CF9108950F931F93CF93DF9374
:1016F000EB018A0190918704943059F58093E900B9
:101700008FEF9091E80095FD06C095ED9A95F1F761
:1017100000008150B1F78091E80085FF1AC067DEB4
:10172000811112C08091E80085FD06C08091E8001B
:101730008E778093E800F3CF88818093F100015089
:10174000104011F02196EECF8091E8008E778093C3
:10175000E800DF91CF911F910F910895603229F435
:1017600040E250E0BC0182E0BFCF0895CF93DF9309
:10177000EC0148E050E0BC0181E0B6DF88E0FE010A
:10178000AFE0B2E001900D928A95E1F7DF91CF9141
:10179000089540E250E0BC0184E0A6CF46E050E06E
:1017A000BC0184E0A1CF43E050E0BC0184E09CCFC9
:1017B0009091D70492FB222720F9281771F080FB23
:1017C00092F99093D7046091D6047091D70484E085
:1017D00090E00E94DD2E82E0B1C908951F93CF935F
:1017E000DF93122F8730B8F4611115C0433098F49D
:1017F000C42FD0E0CC0FDD1F96E0899FC00DD11D16
:101800001124632FCE0189960E94C32E612FCE0131
:101810008A960E94C32EDF91CF911F9108950F9356
:101820001F93CF93DF93142F022F8730F0F46111B1
:101830001CC094E0899FE0011124CD5ADF4F81E064
:101840008427632F9E01280F311D280F311DC901E8
:101850000E94C32E81E090E0111102C083E090E06D
:10186000602F8C0F9D1F0E94C32EDF91CF911F917F
:101870000F910895A0E0B0E0E0E4FCE00C94732B3D
:1018800003E812E08BE6E82E82E0F82EC0E0670164
:10189000D0E0C43090F121E030E04D2F60E08C2F9B
:1018A0009DDFDF5F82E0C80ED11CD33091F721E0CD
:1018B00030E0C43020F4F801859195919C0141E01D
:1018C00060E08C2FACDF21E030E0C43028F4F80178
:1018D0003296859195919C0140E060E08C2F9FDFCE
:1018E000CF5F0C5F1F4F86E0E80EF11CC73079F622
:1018F000CDB7DEB7E8E00C948F2BF601859195917A
:101900009C01CBCFCF936DE572E088EC94E076DC60
:10191000C82F811519F088EC94E0B4DB9091C904CC
:1019200086E0E8ECF4E0282F11922A95E9F79093ED
:10193000C904E8ECF4E0ADE5B2E001900D928A95BF
:10194000E1F781E0911101C080E08C2BCF910895E7
:1019500080911501813061F58091D60487FF28C000
:1019600003D98093E50140E250E06FE874E084EE33
:1019700091E00E94DD2B892BD1F080E2E4EEF1E0D2
:10198000AFE8B4E001900D928A95E1F7E091AF04E1
:10199000F091B004309759F00480F581E02D309734
:1019A00031F086E08093E40184EE91E0099508959A
:1019B000DBD88093DC0148E050E061EB74E08CED13
:1019C00091E00E94DD2B892B91F388E0ECEDF1E0B2
:1019D000A1EBB4E001900D928A95E1F7E091AF049C
:1019E000F091B004309719F30280F381E02D309725
:1019F000F1F28CED91E0DACF811531F09091D004C5
:101A0000982B9093D004A4CF0895811511F0D3D8CA
:101A10009FCF08950F931F93CF93DF938730E0F408
:101A200061111AC04330C0F4C42FD0E0CC0FDD1FC9
:101A300096E0899FC00DD11D1124CE0189960E9488
:101A4000A22E082FCE018A960E94A22E902FDF91FF
:101A5000CF911F910F91089580E090E0F8CFFF9211
:101A60000F931F93CF93DF93F42E873018F56111F6
:101A700021C094E0899FE0011124CD5ADF4F81E01D
:101A800084279E01280F311D280F311DC9010E9496
:101A9000A22E082F81E090E0F11002C083E090E0D8
:101AA0008C0F9D1F0E94A22E902FCDB7DEB7E5E0D0
:101AB0000C94922B80E090E0F8CF462F711106C075
:101AC000633058F4873048F460E0A4CF7D3F41F4A0
:101AD000611103C041E0873048F080E090E0089554
:101AE0007C3FD9F76111F9CF8730B8F760E0B7CF05
:101AF000CF92DF92FF920F931F93CF93DF936C01EE
:101B00000091D4048091D304082BC6E0D0E010E00B
:101B1000C8010C2E02C0959587950A94E2F780FDC6
:101B20000CC02197A8F7F12C8F2DDF91CF911F9139
:101B30000F91FF90DF90CF900895FC2EB6018C2F6F
:101B4000BCDF35D9019769F3EFCF1F93CF93DF93B4
:101B5000FC012581C081D181CE01211579F061156B
:101B600069F0C6DF182F682FCE010E943105BE0133
:101B7000812FA3DFDF91CF911F9108950E9444052B
:101B8000182FF5CFCF93DF93EC01B2DFBE0195DFC5
:101B90000ED9DF91CF910895FC012481211599F090
:101BA00080819181EFDF282F92959F70963099F078
:101BB00060F4925F9F70923030F4203FB1F038F4BF
:101BC00081E0283E38F080E008959A5FF3CF81E00D
:101BD000243FC9F7089591E0213F09F090E081E0AA
:101BE000283E08F080E0892B089581E0089561394E
:101BF00023E072078105910528F4CB0181599F4F9D
:101C00000C94A22E80E00895CF92DF92EF92FF9283
:101C1000CF93DF93EC01C880D980EA80FB80B601C6
:101C2000C701E5DF9FEFC91AD90AE90AF90AC88294
:101C3000D982EA82FB82DF91CF91FF90EF90DF9013
:101C4000CF90089585E290E00E94A22E863269F43A
:101C500086E290E00E94A22E873039F487E290E07D
:101C60000E94A22E91E0813209F090E0892F8170CC
:101C70000895ADE2B0E0EFE3FEE00C94692B8091B3
:101C80007004833009F0C8C24091C8045091C9045F
:101C90006091CA047091CB048091CC049091CD04E2
:101CA000C8DC2093C8043093C9044093CA045093FD
:101CB000CB046093CC047093CD0486E0E8ECF4E0B0
:101CC000DE01179601900D928A95E1F70091CA0402
:101CD00001951091CB04119509871A8786E0FE01C2
:101CE0003796DE011D9601900D928A95E1F786E008
:101CF000FE013D969E012F5F3F4FD90101900D924D
:101D00008A95E1F786E0F901A8ECB4E001900D9224
:101D10008A95E1F786E0E8ECF4E0DE0117960190A1
:101D20000D928A95E1F786E0FE013796DE01539623
:101D300001900D928A95E1F786E0FE017396D90134
:101D400001900D928A95E1F786E0F901A8ECB4E0E4
:101D500001900D928A95E1F786E0E8ECF4E0DE016F
:101D60005F9601900D928A95E1F73090CC04209017
:101D7000CD04E0911C05F0E0EE0FFF1FE25CFE4F8A
:101D80006081718180E090E00E94F02A25E33AEFC3
:101D90004EE85CE30E94322A4B015C01602F000F89
:101DA000770B872F972F0E94F22A2B013C01B40159
:101DB000C5010E9420296B017C01612F110F770B57
:101DC000872F972F0E94F22A6DA37EA38FA398A737
:101DD000B401C50190580E947E2969A77AA78BA7F4
:101DE0009CA79601A701B201C3010E94322A4B01B0
:101DF0005C0129A53AA54BA55CA56DA17EA18FA18B
:101E000098A50E94322A9B01AC01B401C5010E9431
:101E1000BA2A2AE939E949E95EE30E94322A4B01EC
:101E20005C0123E333E343E35FE360915802709185
:101E3000590280915A0290915B020E94322A9B01C2
:101E4000AC01B401C5010E94BB2A4B015C0129A56C
:101E50003AA54BA55CA5B201C3010E94322A2B0111
:101E60003C012DA13EA14FA158A5B601C7010E947A
:101E7000322A9B01AC01B201C3010E94BB2A2AE9AC
:101E800039E949E95EE30E94322A6B017C0123E3D0
:101E900033E343E35FE36091540270915502809114
:101EA0005602909157020E94322A9B01AC01B60162
:101EB000C7010E94BB2A6B017C018092580290925C
:101EC0005902A0925A02B0925B0260935402D092DF
:101ED000550280935602F092570220E030E040EC29
:101EE0005FE3B401C5010E94322A4B015C0120E08E
:101EF00030E040EC5FE3B601C7010E94322A6B017B
:101F00007C0180911E059E012F5F3F4F29A73DA7B1
:101F1000811509F4FBC0B401C5010E94BF2A8B01E1
:101F200077FF04C000271127061B170BB601C70156
:101F30000E94BF2AAB01CB0177FF04C088279927F5
:101F4000841B950B801791070CF0CBC0E12CF12C72
:101F500067016091520270915302872F880F880B9E
:101F6000982F0E94F22A6DA37EA38FA398A7609159
:101F7000500270915102872F880F880B982F0E9472
:101F8000F22A2B013C0180911D05811509F4ADC099
:101F90002DA13EA14FA158A5B401C5010E94BB2AA5
:101FA0004B015C019601A701B201C3010E94BA2A4C
:101FB0000E94BF2A6B017C01B401C5010E94BF2AA7
:101FC000AB016093520250935302C0925002D092E0
:101FD0005102E0911B05F0E0EE0FFF1FEE5CFE4F9B
:101FE000E0819A010E2E02C0359527950A94E2F7FA
:101FF000C6010E2E02C0959587950A94E2F7082F28
:10200000211581F0220E322F330F330B0E2E02C01A
:10201000220F331F0A94E2F7421B530B40935202E4
:1020200050935302011509F4F5C0380E982F990FFB
:10203000990B02C0880F991FEA95E2F7C81AD90ACE
:10204000C0925002D092510200E010E009A31AA3FE
:102050003BA22CA286E0FE017F96DE01179601903E
:102060000D928A95E1F786E0FE013796A9A5BDA5F8
:1020700001900D928A95E1F786E0E9A5FDA5DE01C4
:10208000599601900D928A95E1F786E0FE017996C6
:10209000DE01179601900D928A95E1F786E0FE0128
:1020A0003796A8ECB4E001900D928A95E1F786E0AE
:1020B000E2ECF4E0DE01179601900D928A95E1F7CB
:1020C0008091C9049885892B8093C9041BDC8111F8
:1020D00002C080915C0210925C02AD96E2E10C9429
:1020E000852BA12CB12C450134CF9401A5016DA104
:1020F0007EA18FA198A50E94BA2A4B015C01920192
:10210000A301B601C7010E94BB2A52CF20E030E0F4
:1021100040E05FE3B401C5010E94322A20914C02E5
:1021200030914D0240914E0250914F020E94BB2AC5
:102130004B015C0160934C0290924D0280934E02E1
:10214000B0924F0220E030E040E05FE3B601C7010B
:102150000E94322A209148023091490240914A025D
:1021600050914B020E94BB2A6B017C016093480294
:10217000D092490280934A02F0924B02B401C50109
:102180009F7720E030E040E85FE30E942D2B00E0E5
:1021900087FD1AC0B401C5010E94BF2A062F762F01
:1021A000770F770B872F972F0E94F22A9B01AC01A4
:1021B000B401C5010E94BA2A60934C0270934D028B
:1021C00080934E0290934F0220E030E040E85FE3BE
:1021D000B601C7019F770E942D2B87FD1BC0B6015A
:1021E000C7010E94BF2A162F762F770F770B872FF4
:1021F000972F0E94F22A9B01AC01B601C7010E94F1
:10220000BA2A609348027093490280934A029093DD
:102210004B021CCF10E01ACF80E05FCFAB0124E669
:1022200030E0BC0188E70E948C289C0181E0232BD0
:1022300009F080E00895809169048115E9F00ED8D5
:10224000DC01CB01805A9541AF4FBF4F80936A04A8
:1022500090936B04A0936C04B0936D048091680418
:1022600081110AC062E070E084EF92E0D7DF81154F
:1022700019F081E0809368040895809169048115C4
:1022800061F080916804811541F062E070E082EFB6
:1022900092E0C4DF8111109268040895CF93DF9318
:1022A000C0916502D09166028A30C1F440916E04FB
:1022B000CE0187569240642F70E00E94552B481B38
:1022C000842F66E00E94A02BC82FC11103C0DF91AC
:1022D000CF910895C15080E2E1DFF7CF8D30C1F496
:1022E000C756D24040916E04642F70E0CE010E9428
:1022F000552B481BCE01840F911D923010F080E0C9
:1023000090E089599D4F8093650290936602DFCFDC
:1023100096E0FE01A1E4B2E001900D929A95E1F7FA
:10232000803E08F455C086E019928A95E9F7C0917D
:102330006502D091660246E050E0BE0181E492E081
:102340000E94DD2B9E0127563240892B41F1C901A5
:1023500045E0969587954A95E1F741E050E0BA014E
:1023600002C0660F771F8A95E2F7CB016091630286
:1023700070916402862B972BB9016B5F7F4FE5E06C
:1023800076956795EA95E1F702C0440F551F6A9567
:10239000E2F7842B952B80936302909364022A5F6B
:1023A0003F4F40916E04642F70E0C9010E94552B8D
:1023B000481B463010F4240F311D323010F020E05D
:1023C00030E029593D4F20936502309366027FCF5C
:1023D00096E0899FB00111246A507D4F46E050E09D
:1023E000CE010E94D42BA3CFCF93DF93EC01FE014B
:1023F0008491811103C0DF91CF9108954FDF219621
:10240000F6CF0F931F93CF93DF93EC01FC01019064
:102410000020E9F78F0101501109C017D10728F0FA
:10242000DF91CF911F910F910895899137DFF5CFFB
:10243000A2E1B0E0EEE1F2E10C946B2B8091690433
:10244000811509F46FC187E692E08093650290934D
:102450006602E0911B05F0E0EE0FFF1FEE5CFE4F01
:1024600010810181E0911C05F0E0EE0FFF1FE25C9E
:10247000FE4FB080A180E0911A05F0E0EE0FFF1F43
:10248000E153FE4F81818F9380818F9397E1E92EF5
:1024900091E0F92EFF92EF921F9226E0922E9F92EA
:1024A0006E018DE0C80ED11CDF92CF920E94EA2B04
:1024B0000F931F93FF92EF921F929F928E01095FDD
:1024C0001F4F1F930F930E94EA2BAF92BF92FF9270
:1024D000EF921F929F927E018FEFE81AF80AFF9207
:1024E000EF920E94EA2B8AEE92E07EDF9091D40474
:1024F0008091D304892B0E94A2042DB73EB7285E99
:102500003F4F0FB6F8943EBF0FBE2DBFBC2CCD2C55
:10251000D02E012F1E2D823009F410C108F006C103
:10252000811109C184EE92E05FDF80EC92E05CDF14
:1025300080911E05811509F407C188EB92E054DFF4
:102540008AE992E051DF8B2D9C2D5BDF87E992E0D9
:102550004BDF8D2D902F55DF83E992E045DF812FF2
:102560009F2D4FDF8091630290916402892B09F4C3
:10257000BFC080916904811509F4BAC080916704D5
:102580008111B6C058DE8091630290916402009779
:1025900009F4AEC080FBEE24E0F8F12C10E080FDE1
:1025A00010C041E050E0212F2F5F122F7A0102C0AE
:1025B000EE0CFF1C2A95E2F7970128233923232BE1
:1025C00091F380916F0480FFC2C0912F990F990FF2
:1025D000990F392F395F80E023E0909302018093B7
:1025E0000501309303012093060124E630E047E023
:1025F00050E060E071E088E70E944228892B09F0F2
:1026000077C080E2189FA001112480916F0480FFA1
:10261000B0C0E1E2F2E080E211928A95E9F73EE291
:10262000632E31E0732E6AE2862E61E0962E62E31D
:1026300071E0D301ED913D01D4010D914D01040FE5
:10264000152F111DF0E0EF5DFD4F80E090E027E0D9
:10265000A22EA81ABB24B394082E01C0BB0C0A9466
:10266000EAF7980129593D4F2901D12CD2012D912A
:102670002D012B21B22F2A2D2D19277030E0AB2FE1
:10268000022E01C0AA0F0A94EAF7CA2E31952195AD
:10269000310927703327AB2F01C0A6952A95EAF799
:1026A000CA2A2081C22AC082D3942D2D2830F1F667
:1026B000019631968830910551F66615770509F037
:1026C000B8CF04E610E020E241E252E060E488E79F
:1026D0000E94D228892B61F4E094F09480916302E7
:1026E00090916402E822F922E0926302F09264027F
:1026F000809168048115B1F00E942E0900916A044E
:1027000010916B0420916C0430916D04DC01CB01BD
:10271000801B910BA20BB30B8F3F9F4FAF4FBF4757
:1027200008F4ABDD6296E0E10C94872B833049F02E
:1027300088EC92E0F9CE8DED92E0F6CE86ED92E057
:10274000F3CE8FEC92E0F0CE80EB92E0F8CE20E278
:10275000129FC0011124880F492F441F550B51951A
:10276000242F912F9295990F9076392F315E842FD7
:1027700034CF49595D4F04E610E020E230E0A6CFA7
:10278000A0E1B0E0E6ECF3E10C946B2BFE01319696
:10279000DF0180E11D928A95E9F70AE310E09FE6E8
:1027A000A92EB12C21E9422E23E0522E612C712C4E
:1027B0009E2E8F2E6201730181E14816510461043F
:1027C00071041CF080E1C82ED12CA601B501892D21
:1027D000982D0E94B42EAC0CBD1C0D2C000C0008D2
:1027E0004C185D08600870080150104019F7609699
:1027F000E0E10C94872B6FEF85E290E00E94C32EFE
:102800006FEF86E290E00E94C32E6FEF87E290E0C8
:102810000E94C32E60E088E290E00E94C32E2AD876
:10282000AFDF66E285E290E00E94C32E67E086E2B9
:1028300090E00E94C32E61E287E290E00C94C32EE8
:102840001F921FB61F9211248F939F93AF93BF9334
:1028500080917104811113C0809117029091180228
:10286000A0911902B0911A024196A11DB11D809349
:10287000170290931802A0931902B0931A02BF9105
:10288000AF919F918F911F901FBE1F9018952FB7EA
:10289000F8948091170290911802A0911902B091BA
:1028A0001A022FBF0895CF93DF93EC01F0DF8C1B4A
:1028B0009D0BDF91CF9108950F931F93CF93A0E6C7
:1028C000B1E031E0C0E02D912F3F11F480E010C065
:1028D000E22FE295EF70E05EF0E0808190E02F70F3
:1028E00002C0959587952A95E2F780FDEFCF832F5B
:1028F000C82B330F81E0A336B80729F780918C04E9
:102900008C1315C080918A048115D9F00091880438
:1029100010918904BCDF801B910B059790F080918A
:102920008B04C813C0938B0410928A040AC0C0930E
:102930008C0481E080938A04AADF809388049093BA
:102940008904CF911F910F910895A1DF9C0190916F
:10295000C4048091C504982B21F020938404309303
:1029600085049091C6048091C704982B21F0209390
:1029700082043093830482EC94E00C944208611545
:1029800009F459C0E82FED5CE33150F4F0E0EE5F5C
:10299000F04D0C94BF2B0E94EE0781958093C504E7
:1029A000D4CF0E94EE07FACF0E94EE078195809364
:1029B000C404F6CF0E94EE07FACF0E940E0880935F
:1029C000C604EECF0E940E088195F9CF0E940E0832
:1029D00081958093C704E4CF0E940E08FACF482F58
:1029E000415D550B21E001C0220F4A95EAF7909115
:1029F000C304922B9093C3044091C904815D21E0EC
:102A000001C0220F8A95EAF7822F611509F48AC066
:102A1000422B4093C9040C94820C8091C1048160C4
:102A20008093C104BDCF8091C1048260F9CF8091B1
:102A3000C1048460F5CF9091C404482F50E08D3CD0
:102A400059F42091C50427FF0DC01092C5049111BF
:102A50000BC01092C00408C08E3CA9F42091C5049C
:102A600012169CF39115A9F09091C6042091C70409
:102A7000922B11F41092BF04415D51094830510569
:102A800008F4BACF8DCF8F3C39F497FFEBCF10927B
:102A9000C4049091C504DBCF803D19F41916BCF332
:102AA000E1CF2091C604893D29F41216DCF610927C
:102AB000C604D8CF8A3D19F427FFD4CFF8CF209190
:102AC000C7048B3D29F427FFCDCF1092C704CACF8E
:102AD0008C3D19F41216CCF3C5CF282F215D283078
:102AE00070F4FA01E15D21E001C0220FEA95EAF7F6
:102AF00020953091C30423232093C304B3CF2091A6
:102B0000C1042E7F8D3D59F02091C1042D7F8E3D53
:102B100031F08F3D09F0A6CF2091C1042B7F209387
:102B2000C104A0CF8095482374CFCF93C82F8115BF
:102B3000D1F08450813A90F580911501813021F4D3
:102B40008091D60487FD11C0EEEDF1E08081C817B9
:102B5000F9F0319681E0E43EF807C1F78C2F0E942E
:102B6000A2080E94A80CCF910895EC2FE695E69557
:102B7000E695F0E0EC51FE4F828190E04C2F4770DB
:102B800021E001C0220F4A95EAF78223892B31F315
:102B90008C2F0E94D6080E94A80CE0CF8C2F805E5C
:102BA000883060F4C77081E001C0880FCA95EAF7E9
:102BB000C091D004C82BC093D004D3CF8C2F855A9A
:102BC000833030F48C2F8452990B0E945408CBCF61
:102BD000EC2FE85AEB3150F4F0E0EE0FFF1FE75610
:102BE000FE4F808191810E947B08BDCF8C2F8D5C30
:102BF000833108F0B8CF61E08C2FC1DEB4CF8115EE
:102C000069F1982F9450913A20F40E94D6080C94C0
:102C1000A80C982F905E983058F4982F81E091FD81
:102C200084E090FD880F92FD82950E94DB05EFCF36
:102C3000982F955A933020F480E090E00C9454083B
:102C4000982F985A9B3120F480E090E00C947B08F8
:102C5000982F9D5C933110F460E091CE08951F93FE
:102C6000CF93DF93182FEB0160DF209731F4812F92
:102C7000C6DFDF91CF911F9108958FE99FE0019703
:102C8000F1F700C000002197F0CF1092D00480919E
:102C90001501813019F58091D60487FF1FC0E6EE3B
:102CA000F1E08EE111928A95E9F780E090E00E94D0
:102CB000540880E090E00E947B081092D8040E94A3
:102CC000A80CE2ECF4E086E011928A95E9F7109204
:102CD000C0041092BF041092C10437CEEEEDF1E0B3
:102CE00086E0E0CFD2DF88E19AE00FB6F894A895AD
:102CF000809360000FBE90936000FFCFAAE2B0E027
:102D0000E4E8F6E10C94782B87E092E0FC01019670
:102D10002091F100208322E08F309207B9F7809153
:102D20000802893009F459C0C8F4823009F4B7C0E8
:102D3000833009F486C0813089F18091E80083FFF7
:102D4000EBC080910702909108029A3008F0E4C02D
:102D5000E92FF0E0EB5EF04D0C94BF2B8A3009F4C4
:102D60008DC08B3051F780910702813231F780910D
:102D70000B0290910C02892B01F78091E800877F6C
:102D80008093E8000E94D80981E090910902911196
:102D900001C080E08093150178DFCFCF80910702DA
:102DA000813A59F68091E800877F8093E80080910E
:102DB0000B0290910C02892B61F060E080E090E0C2
:102DC00070E00E944B098091E8008B778093E800C7
:102DD000B4CF68E08FE092E0F3CF809107028132B8
:102DE00009F0ABCF80910B0290910C028D7F892B63
:102DF00009F0A3CF8091E800877F8093E80080915D
:102E0000E80082FF19C02091F3008091F200922F18
:102E1000029731F48091F100813011F0863021F475
:102E20008091F100809314018091E8008B7780936A
:102E3000E8000E94D80981CF809187048111DFCFFB
:102E40007CCF80910702813A09F077CF80910B0205
:102E500090910C02892B09F070CF8091E800877F58
:102E60008093E8008091E80080FFFCCF80911501FD
:102E70008093F1008091E8008E77D9CF809107028E
:102E8000813209F05ACF8091E800877F8093E80073
:102E90000E94D80980910A02809313014ECF80913D
:102EA0000702813A09F049CF8091E800877F80933B
:102EB000E8008091E80080FFFCCF80911301D8CF1B
:102EC000803889F0823841F580910B028F7087300D
:102ED00018F58093E9008091EB0085FB882780F945
:102EE0001092E90006C080917204880F909104024C
:102EF000892B9091E800977F9093E8008093F100F0
:102F00001092F1008091E8008E7723C0811116C0E5
:102F100080910902813011F18091E80083FF0AC09D
:102F20008091E800877F8093E8008091EB008062C9
:102F30008093EB00AA96E3E00C94942B823061F727
:102F400080910902811581F01092E9008091E800DA
:102F5000877F8093E8000E94D809DECF933009F084
:102F600080E080937204F0CF80910B028F70282F45
:102F70002150263088F68093E9002091EB0020FF55
:102F8000E3CF933031F48091EB0080628093EB00CB
:102F9000DBCF9091EB0090619093EB0021E001C0BA
:102FA000220F8A95EAF72093EA001092EA008091B6
:102FB000EB008860EBCF8111AFCF809109028F7752
:102FC000182F8091E3008078812B8093E30080911B
:102FD000E800877F8093E8000E94D8098091E8008C
:102FE00080FFFCCF8091E30080688093E30083E062
:102FF000111101C082E0809387048ECF8058823007
:1030000008F08ACF8091090290910A028C3D23E05A
:10301000920791F583E08A838AE289834FB7F89417
:10302000DE01139620E03EE051E2E32FF0E0509302
:103030005700849120FF03C082958F703F5F8F708F
:103040008A30C0F0895C8D931D922F5F243169F71F
:103050004FBF8091E800877F8093E8006AE270E0CC
:10306000CE0101960E944B098091E8008B778093F6
:10307000E80052CF805DE7CF292F30E023303105C3
:1030800009F44DC078F52130310509F47CC08BE599
:1030900090E0E8ECF1E02230310509F03DCF2091DD
:1030A000E800277F2093E80020910D0230910E0266
:1030B0008217930708F49C0140E02115310509F0BF
:1030C00067C0411165C08091E80082FDCDCF80913D
:1030D0008704811549F2853039F28091E80083FF39
:1030E000F2CFC2CF80910B0290910C0221323105B8
:1030F000D9F12232310509F00FCF8330910508F064
:103100000BCFFC01EE0FFF1FE25EFE4F0190F0813E
:10311000E02D855E9E4FDC018C9190E011C0282F40
:1031200030E0813089F022303105B1F0232B09F0F5
:10313000F3CEE7E6F2E0E4918E2F90E0E7E6F2E0EE
:10314000009709F4E9CEABCFE9E5F2E0E4918E2FE8
:1031500090E0E9E5F2E0F4CFE5E3F2E0E4918E2FD0
:1031600090E0E5E3F2E0ECCF8330910508F0D4CEB7
:10317000880F991FFC01EC5DFE4F0190F081E02D5E
:1031800089E090E08CCF82E190E0E3E2F2E087CF4B
:1031900080918704811509F467CF853009F464CFE5
:1031A0008091E80083FD60CF8091E80082FD8BCFA5
:1031B0008091E80080FF81CF4091F3008091F20080
:1031C000942F2115310519F08830910550F041E018
:1031D000089709F040E08091E8008E778093E8003E
:1031E0006CCF44914093F100319621503109019602
:1031F000E8CF803809F090CE8091E800877F8093F7
:10320000E800809105028093F1007CCE811184CE8C
:1032100080910902182F823008F07ECE8091E8005C
:10322000877F8093E800109305020E94D80911154A
:10323000F9F084E08093870442E061EC81E00E9431
:10324000A80942E261EC84E00E94A80942E261EC34
:1032500082E00E94A80942E260EC83E00E94A80993
:1032600080918704843051F482E08093160154CE1B
:103270008091E30087FDDDCF81E0DCCF81E0F5CFF9
:10328000FF920F931F93CF93DF93C62FD42FF22E6D
:103290008115A9F06093CE04FADA80931F0290930F
:1032A000200281E0C1FD84E0C0FD880FC2FD82954F
:1032B0000E94FC0CCDB7DEB7E5E00C94922B809118
:1032C000CE04681332C000911F0210912002DFDA91
:1032D000801B910B883C910540F51D2F105ECD178A
:1032E000A1F0C77001E0802F01C0880FCA95EAF7EE
:1032F0000E94050D183048F48D2F877001C0000F13
:103300008A95EAF7802F0E94FC0C60E070E08F2D18
:10331000A6DC81E0D1FD84E0D0FD880FD2FD82954E
:10332000183040F60E94050DC5CF81E0C1FD84E054
:10333000C0FD880FC2FD8295F5CFA4E0B0E0E3EABE
:10334000F9E10C946E2B7C01FC018481811509F458
:1033500005C161E0C7010E94A50D8C0101158EE732
:10336000180709F062C0F7018581811509F1809184
:103370001A0590E0019665E070E00E94552B80935D
:103380001A0540911A0550911B0560911C0570911A
:103390001D058FE090E00E94D52EE0911A05F0E027
:1033A000EE0FFF1FE153FE4F808191810E94F20AD0
:1033B000F7018581811509F433C198013757203809
:1033C000310508F0E2C4003108F0B9C060E973E0EB
:1033D00080E090E00E94F70D8111B1C0A12CB12CCA
:1033E0004501011178C089829A82AB82BC828E012C
:1033F0000F5F1F4FC8010E94040EB02EA12E813016
:1034000008F49DC009F0C6C0C8010E94040E8130B6
:1034100009F075C0C8010E94040E60E570E08933B0
:1034200011F060E070E01BDCE5CF01308EE718079B
:10343000E1F4F7018581811509F4BACF80911B056C
:1034400090E0019666E070E00E94552B80931B058A
:1034500040911A0550911B0560911C0570911D0546
:103460008FE090E00E94D52EA3CF02308EE71807A0
:1034700009F051C4F7018581811509F499CF809134
:103480001C0590E0019669E070E00E94552B809346
:103490001C05DECFF7018581811509F489CF809164
:1034A0001C0590E00896EFCFF7018581811509F49E
:1034B0007FCF80911D05819580931D05C9CFF701B0
:1034C0008581811509F474CF80911E0591E08927CB
:1034D00080931E056DCF81E9881683E09806A104CC
:1034E000B10469F1B401C5010E94F70D9FEF891A7B
:1034F000990AA90AB90A8111EECF015072CF823020
:1035000029F4C8010E94040E10DB74CF833029F423
:10351000C8010E94040E73DB6DCF843071F4C801C2
:103520000E94040EC12CD12C282F2053330B2A309B
:103530003105C0F0C114D10419F581115BCF809120
:10354000D504877059F0F7018581811539F0809194
:10355000D70482FF03C082E00E949E052496EDE01E
:103560000C948A2B4AE04C9DC0014D9D900D112476
:10357000280F391F69018B2D9A2D0E94040ED4CF7C
:10358000EFE9FFE03197F1F700C0000091E0C91AC0
:10359000D108D0CFE82FF0E0E857F74F9491792E7B
:1035A000282F26952695269530E0F901E858F74F03
:1035B000C4908770D12C082E02C0D594C7940A9469
:1035C000E2F7F901E859F74FA490B12C082E02C098
:1035D000B594A7940A94E2F7285A374FF9018490DA
:1035E000912C02C0959487948A95E2F7C0FE02C0A0
:1035F00081EE9BDAA0FE02C086EE97DA60E070E012
:10360000872D2DDBA0FE02C086EEF9DAC0FE02C0D7
:1036100081EEF5DA80FEEECE60E070E08CE203CF62
:10362000F801E851FC47E730F10508F089C3E15E95
:10363000F04D0C94BF2B26E241EE61EE21DE7FCFF0
:1036400027E245EE65EEFACF26E241EE60EEF6CFD8
:1036500027E245EE64EEF2CF26E241EE62EEEECFD7
:1036600027E245EE66EEEACF28E241E0EBCF80911B
:10367000D60481608093D6046091D6047091D704FB
:1036800084E090E00E94DD2E00DB59CF8091D704CA
:1036900088608093D704F0CF8091D6048260EACF0F
:1036A0008091D6048460E6CF8091D6048860E2CF12
:1036B0008091D7048160EDCF8091D7048260E9CFFB
:1036C0008091D6048061D6CF8091D6048062D2CF1B
:1036D0008091D6048064CECFD8DA8091D6048068F9
:1036E000C9CF8091D6048C60C5CF8091D704836008
:1036F000D0CF8091D6048E7FBDCF8091D704877FB5
:10370000C8CF8091D6048D7FB5CF8091D6048B7FB2
:10371000B1CF8091D604877FADCF8091D7048E7FC3
:10372000B8CF8091D7048D7FB4CF8091D6048F7E9F
:10373000A1CF8091D6048F7D9DCF8091D6048F7BC1
:1037400099CFA3DA8091D6048F7794CF8091D60455
:10375000837F90CF8091D7048C7F9BCF9091D604AC
:10376000892F8B7F92FF8460877F92FF886082CF52
:103770008091D704982F909590FB80F990FB81F968
:1037800088CF9091D604892F8F7B96FF806472CF6B
:103790007CDA9091D604892F97FB87F980586ACFFD
:1037A00061E08EE090E00E94C32E66CF60E0F9CF2A
:1037B0009091D604892F8F7E94FF80615BCF90918A
:1037C000D604892F8E7F90FF816054CF9091D704CB
:1037D000892F877F93FF88605CCF89E2D1C289E21D
:1037E000BAC207379CE71907F1F008379CE71907B9
:1037F00049F19801205E32452032310548F58111AA
:1038000039C00F7181E090E002C0880F991F0A95BE
:10381000E2F78C01682F83E090E00E94C32E802F96
:103820000E94C1048CCE811549F081E00E94C80439
:1038300043E062E081E00E94570581CE81E00E9472
:10384000D104F6CF811511F082E0F0CF82E0F7CFFE
:10385000811571F10B359CE7190709F10C359CE7CF
:10386000190791F00A359CE71907B9F001309CE778
:103870001907E9F003309CE7190799F001151C4777
:10388000B9F403DA0E943A098091D704002482FF38
:103890000394802D0E94D80B52CE81E0FBCF80E0B4
:1038A000F9CF6FEF7FEF80E090E00E94DD2E1ADA13
:1038B000F70100811181811509F447C0C8010E94F8
:1038C000780DD82E682FC8010E943105B8018D2DC2
:1038D0000E945D0D0E94D706182FA92EF701C58002
:1038E000D680D2948FE0D8228091D504877001F1E0
:1038F000BC2CC114F1F0892F807F803461F0812FBE
:10390000805E8830A8F0892F807E803221F41230CA
:1039100078F0D11469F08091D70482FF09C082E069
:103920000E949E058091D5048770BB24B3948111B9
:10393000B12CEA2DE295EF708A2D803C08F067C02B
:10394000F0E0EA5DF04D0C94BF2BC8010E944405E5
:10395000D82EBCCF0A2D0F70803110F00295007F59
:10396000C114B9F0011569F0812F805E883010F024
:10397000111109C08091D004802B8093D0040E9443
:10398000A80C812F3EC08091D804802B8093D8044E
:10399000F6CF812F34D90115D1F1812F805E883087
:1039A00010F0111104C0802F0E94DB0506C00095A5
:1039B0008091D80480238093D8040E94A80C27C04B
:1039C0000A2D0F70807F803211F00295007F113038
:1039D00040F009F463C0C11409F46EC0D11499F128
:1039E000D0CF8091D70482FD2AC0C11461F00115A7
:1039F00039F08091D004802B8093D0040E94A80CD1
:103A000080E093D804C080E0FAD80111CCCFB11483
:103A100009F4B0C08091D50480FDACC0F7011582D7
:103A20008695869586950E94C804C70186DC80919C
:103A3000D5048695869586950E94D1049BC0C114B5
:103A400099F0D11004C0802F0E94FC0CE0CF8D2D86
:103A50008130E9F68091D104902F98230917B9F2AB
:103A6000802B8093D104D3CFD110D1CF802F0E944F
:103A7000050D9091D104802F892329F0802F809506
:103A800089238093D1048091D204902F982309F444
:103A9000BECF009508230093D204B9CF8D2DC11459
:103AA00021F0863008F0B3CFCECF853008F0AFCF0D
:103AB000802F0E94050DABCFD114D1F3193349F4F7
:103AC0008FEF97EE23E0815090402040E1F700C057
:103AD0000000812F94D89BCF869586958370813086
:103AE00060F009F094CF812F9A2D9370C11002C01D
:103AF00080E090E00E947B088ACF812F9A2D9370FE
:103B0000C11002C080E090E00E94540880CF6C2D6C
:103B1000812F0E94BF147BCF8370E1F5C11028C0B4
:103B2000812F829586958770880F880F412F4F705F
:103B3000082E01C0440F0A94EAF7212F207114FFC8
:103B400006C02FE001C0220F8A95EAF720958A2D42
:103B5000869586958370982F8230A1F08330B9F0D6
:103B60008091D304913059F0242B82230E94C10408
:103B70000E94330860E0C7010E94A50DEFCC842BA2
:103B8000822BF4CF242B8091D3048227EFCF822F76
:103B9000842BECCFC11459F1A0FEEACF812F82957E
:103BA00086958770880F880F412F4F70082E01C0AF
:103BB000440F0A94EAF7212F207114FF06C02FE06A
:103BC00001C0220F8A95EAF720958A2D8695869561
:103BD0008370982F823091F08330A9F08091D404C3
:103BE000913049F0242B82230E94C404C1CF82303B
:103BF00008F4BECFD3CF842B822BF6CF242B809119
:103C0000D4048227F1CF822F842BEECF8F70082F20
:103C1000C11431F00E94C804812F0E94FC0CA8CF6F
:103C2000812F0E94050D802F0E94D104A1CF123F49
:103C300081F170F4103FC9F0113F91F0C11409F403
:103C400056C0D11409F450C0812F0E94951590CF11
:103C5000133F29F1143F91F79091D70492FD2CC0A6
:103C60008A2D8F71C11401F317C08D2DC11479F005
:103C7000853008F07DCF8A2D8F71282F81E001C01B
:103C8000880F2A95EAF79091D4048927ADCF863022
:103C9000F0CF8F71C110C8CF0E94C80469CF80E0F7
:103CA000C11409F4A1CF8A2D8F71982F81E001C032
:103CB000880F9A95EAF798CFC11459F08F7192FF47
:103CC000EBCF982F990F990F990F93609093D5048C
:103CD000E3CF81E00E949E058D2D823008F448CF0D
:103CE00082E00E949E0544CF8A2D8F71D5CFD114DA
:103CF00079F0193349F48FEF97EE23E0815090402B
:103D00002040E1F700C00000812F0E94FF1530CF56
:103D10008A2D8F7189CF03308EE7180709F4BACB4B
:103D200006308EE7180709F4BFCB05308EE7180779
:103D300009F4C5CB04308EE7180709F4C5CB38CB9E
:103D400006319CE7190709F04CCD8091CF0481150D
:103D500009F445CD85E30E94D60814C006319CE7DE
:103D6000190709F03ECD8091D0048A7A91E0811143
:103D700001C090E09093CF04811509F42ECD85E326
:103D80000E94A2080E94A80CDACBF801E851FC4777
:103D9000E730F10508F44BCC1092CE04980130576F
:103DA00023323105D8F684E090E00E94AF2E809354
:103DB000D6049093D704F801E150F047E232F105C0
:103DC00008F055CCEE5CF04D0C94BF2B809119059A
:103DD000803170F480911805811551F0E091DA047A
:103DE0002091D90430911405409113052E1301C080
:103DF0000895BF0187E0E89FF0011124DF01A5527B
:103E0000BB4F14968C911497811551F111968C919A
:103E10001197831325C08C91841322C015968C9121
:103E2000159781111DC012968D919D91A091150538
:103E3000B09116058A1B9B0B883C910588F48091F4
:103E400019058F70806180931905EF51FB4F8081B8
:103E50008F708061808383E195E06FDA0C94940524
:103E60006F5F7F4FFB01E770C1CFADE0B0E0EBE3E8
:103E7000FFE10C946E2B8C0186E0F801DE011896B0
:103E800001900D928A95E1F7F801F580848193E124
:103E9000892E95E0992E70901705711017C0811525
:103EA00091F0F11409F40EC1C8010E94CC0D8115E6
:103EB00009F408C187E0F801A3E1B5E001900D9293
:103EC0008A95E1F783DFFF24F39455C0D080A28068
:103ED000B380C09018052091150530911605A501F5
:103EE000421B530BC11409F4BDC0483C510508F0F6
:103EF00076C0811541F3809114059180E0901905F9
:103F00009E2D903108F057C0981214C0809113056F
:103F10008D1110C0F11049C08E2D8F70806180937B
:103F2000190583E195E009DA80911905F801868386
:103F3000F12C21C0F11039C040E0692D8D2D0E9477
:103F4000750540E0692D8D2D0E947505F82E8111B3
:103F5000EFCF888599850E94C20D292F22952F7059
:103F6000903470F49F70223098F09115A9F0F80108
:103F70009681903188F48F2D2D96EDE00C948A2B4C
:103F80002A5F2F70223060F0C801D7D9FC2CF3CF04
:103F9000911511F0811579F3805E883060F3F4CFCC
:103FA000803F48F3815F8330F9CF809119058160AC
:103FB00080931905BDCF981237C0809113058D11DC
:103FC00033C0F11031C0E682C801B7D987E0F801EB
:103FD000A3E1B5E001900D928A95E1F774CFE090EE
:103FE00019059E2D903148F483E195E0A6D9F4019E
:103FF00087E011928A95E9F79BCF811509F463CF89
:1040000090911405818198130FC0809113058D1133
:104010000BC0F11009C0E682C8018FD9F40187E016
:1040200011928A95E9F74FCFC8010E94CC0D8115F6
:1040300009F448C0F11409F445C08E2D803208F40B
:1040400039CF809113059091140589839A83AB82AF
:10405000BC827D821E82809119058F83CE010196DC
:104060006CD928CF483C510508F0C1CF811509F41F
:104070002ACFF11439F1909114058181981318C059
:10408000809113058D1114C08091190580FD9ECF7C
:10409000803108F49BCF8683807F803F09F494CFE2
:1040A0008681982F907F905F8F70892B86838CCF2D
:1040B000C8010E94CC0D8111FDCE8091190581604F
:1040C00080931905C80139D9FECEABE1B0E0EBE62B
:1040D000F0E20C94772B4E8B5F8B688F798F8A8FF1
:1040E000192F9B8F91111092D8041D8A86E0FE0132
:1040F0007696DE011F9601900D928A95E1F70A8D62
:10410000011561F00B8B1C8B61E0CE010F960E94B4
:10411000A50D61E0CE010F960E94A50D0B8B1C8BA7
:1041200087E0FE013F96DE01189601900D928A9578
:10413000E1F7CE01089699DE81112EC02091D904B5
:104140003091DA0487E0AE01485F5F4FFA014750D3
:104150005109DA0101900D928A95E1F78C8581155C
:10416000D9F0822F90E08395877090E0AC013417EE
:104170001506E1F097E0929FD0011124A552BB4FA4
:104180009E012F5F3F4FF90101900D929A95E1F743
:104190004093D9040E9494058091DA049091D90447
:1041A000891311C06B96E4E00C94932B0E94451682
:1041B0001092D9041092DA04E3E1F5E087E011925D
:1041C0008A95E9F7E9CF27E0829FC0011124855243
:1041D0009B4F4BDE811531F38091DA049091DB0423
:1041E000019687708093DA04D7CFA6E0B0E0EBEFBA
:1041F000F0E20C94772B0E9447148C0180918D047F
:1042000090918E048017910771F019821A820E9492
:104210004714BC0149815A8180E090E056DF009349
:104220008D0410938E042696E4E00C94932BCDB766
:10423000DEB7AC970FB6F894DEBF0FBECDBF85B723
:10424000806885BF85B7806885BF84B7877F84BF56
:104250000FB6F894A8958091600088618093600003
:10426000109260000FBE80E890E00FB6F894809343
:104270006100909361000FBE81E08093160183EC92
:1042800097E08093DA019093DB010E94770A0E9405
:10429000280A8091E20084608093E2007894809103
:1042A0008704811599F08091E9001091EC008F70DE
:1042B00010FB112717F9182B1092E9008091E800E4
:1042C00083FD0E947E161F701093E90082E084BD7A
:1042D00093E095BD9AEF97BD80936E000E94220EE9
:1042E000811102C00E94FB13E9E7F4E088E011921B
:1042F0008A95E9F781E08093780460E080E00E948D
:10430000C50761E080E00E94C5078FE891E0019752
:10431000F1F700C0000010E080917804181708F44D
:104320006BC0A0E6B1E041E08D918F3F09F076C00F
:1043300081E0A336B807C1F710928B0410928C0469
:104340008FE090E00E94AA2E60931A0570931B05DF
:1043500080931C0590931D05663010F00E94D30ACF
:1043600080E090E00E94AF2E833E9E4F21F40E9499
:10437000220E81111DC063EE7EEF80E090E00E946E
:10438000DD2E60E082E090E00E94C32E81E0809309
:10439000D30461E083E090E00E94C32E60E074E10A
:1043A00084E090E00E94DD2E0E94FB130E94D30A5D
:1043B00082E090E00E94A22E8093740484E090E05A
:1043C0000E94AF2E8093D6049093D7040E945C1471
:1043D0008FE39CE90197F1F700C000000E945C1494
:1043E00080918B0480FF2EC06FEF7FEF80E090E024
:1043F0000E94DD2E0E943A0960E0812F0E94D507BD
:10440000082F61E0812F0E94D507E12FF0E0E958E5
:10441000FB4F880F802B80831F5F7ECFE82FE295B4
:10442000EF70F0E021A18F70642F01C0660F8A95B4
:10443000EAF7962F9095922391A392A1862F892B2C
:1044400082A376CF83E090E00E94A22E0E94C10456
:104450008091D4040E94B40482E080936F0480E8C9
:1044600080936E04DCD56BE070E08DE498E00E94F0
:104470000E118115E9F180916F0465E070E081FD16
:104480007FC088E498E00E940E11811589F16DE0EB
:1044900070E086E398E00E940E11811549F10E94B8
:1044A0002E09DC01CB01805A9541AF4FBF4F80935D
:1044B0006A0490936B04A0936C04B0936D04E7E6D8
:1044C000F2E0DF0180E092E01D920197E9F7E093CE
:1044D0006502F09366028FEF9FEF809363029093E3
:1044E000640281E0809369048093680410926704F9
:1044F0000E944B0B811147C081E080937004E091D2
:104500001A05F0E0EE0FFF1FE153FE4F808191810D
:104510000E94F20A60E982E20E94C90A87E091E003
:104520008093AF049093B00401E010E47E018FEF1C
:10453000E81AF80A80918704853041F48091870455
:10454000853019F10E9445160E9433080E945C14C0
:104550008090750470908B04781068C046DEB12C92
:1045600080918104811551F080917B041092810427
:1045700080937C048091790480937A04C12CE5C0F7
:1045800083E498E080CF83E0B8CF809187048430C3
:1045900039F10E943D110E94390E1092710488E198
:1045A00090E00FB6F894A895809360000FBE10932A
:1045B000600083B7817F846083BF83B7816083BFDE
:1045C0007894889583B78E7F83BF0FB6F894A895AB
:1045D00080916000886180936000109260000FBE3F
:1045E0000E945C1480918B0480937304811509F4FC
:1045F000A5CF80917204811509F4A0CF80E189BD17
:1046000082E189BD09B400FEFDCF8091D8008F7D85
:104610008093D8008091E00082608093E0008091D8
:10462000E00081FDFCCF0E94451688CF8724C12C75
:10463000D12C99249394892D882179F4990C8FEFAA
:10464000C81AD80A83E0C816D104A9F77092750475
:104650000E942E09BB24B39483CF692C672061E0AC
:10466000A62E0C2C01C0AA0C0A94EAF780917304C0
:1046700090E08A21892B49F06110E0CFA0948091CD
:104680007304A822A0927304D9CFC9821A820E940F
:1046900047148B839C830D8391E0611001C090E0EF
:1046A0009E8349815A816B817C818D810EDDE4CFAF
:1046B000A0907C04D0907B0461E08C2D0E94D507F3
:1046C000982E60E08C2D0E94D507990C89292C2DFD
:1046D00030E0D901A958BB4FEC919E2F93708917F8
:1046E00099F1EE0FEE0FE82BEC93EF70F0E0E05B4A
:1046F000FE4F2A583B4F8081F9019081890F843009
:104700000CF44EC04D2D50E0BA016395637070E01B
:10471000A616170681F047585B4F9C2D9F77FA012C
:1047200094839D2D9F5F937090937B049091790467
:104730009F5F90937904982F990F990B64E070E034
:104740000E94AC2BF9018083C39480917804C81631
:1047500008F4AECFD12C4CEFA42E5DEF952E8091B6
:104760007C0490917B04981709F450C0E82FF0E086
:10477000E358FB4FC080DC2CE894D7F88F5F837040
:1047800080937C0480917A048F5F80937A04C7FCC5
:1047900018C0D9A2AAA20E94471423E0822E17C0F3
:1047A0008D3F4CF64D2D50E0BA016395637070E07B
:1047B000A616170609F4BFCF47585B4F9C2D90688B
:1047C000AECFD9A29AA20E94471432E0832EBC0138
:1047D0008BA39CA38DA20EA349A15AA1882D91E081
:1047E00074DCDFA2C7FE10C098A60E944714BC016B
:1047F00089A79AA78BA61CA64FA158A5882D90E043
:1048000064DCDD24D394ABCFA8A6EFCFD11419F08C
:104810000E942E09BD2C0E94390E811539F00E948C
:104820002E090E9418120E941B1104C00E94181227
:10483000B110F9CF86E0E2ECF4E0D70101900D92DF
:104840008A95E1F71092C4041092C5041092C60430
:104850001092C7048B819C81892B09F443C0C090BE
:104860008404D09085040E9447148C199D099C01F2
:104870009091C004911509F42DC22531310590F1B4
:104880009F3F19F09F5F9093C004DB80D11459F0D3
:104890000E94EE0791E01D140CF09FEF899F802D80
:1048A00011248093C404DC80D11459F00E94EE07D7
:1048B00091E01D140CF09FEF899F802D11248093AF
:1048C000C5048091C404811569F0D090C504D11449
:1048D00049F00E94E0078093C4048D2D0E94E007F8
:1048E0008093C5048D819E81892B09F443C0C090BB
:1048F0008204D09083040E9447148C199D099C0166
:104900009091BF04911509F4E0C12135310590F172
:104910009F3F19F09F5F9093BF04DD80D11459F041
:104920000E940E0891E01D140CF09FEF899F802DCE
:1049300011248093C604DE80D11459F00E940E0821
:1049400091E01D140CF09FEF899F802D112480931E
:10495000C7048091C604811569F0D090C704D114B2
:1049600049F00E94E0078093C6048D2D0E94E00765
:104970008093C704B70182EC94E00E94FE08811185
:104980000CC08091C4049091C504892B9091C604F9
:10499000892B9091C704892B11F00E94A51486E001
:1049A000F701A2ECB4E001900D928A95E1F70E9424
:1049B000330890918604891721F0809386040E9421
:1049C0002E0980918704843009F0B4CD83E0809370
:1049D000E9008091E80082FFADCD8091E80090E091
:1049E00085FF05C00E94F709811589F091E080914B
:1049F000E8008B778093E800911509F49BCDE9815D
:104A0000E150E53170F5F0E0EC5AF04DB8C680E2C7
:104A1000A82EB12C67018091E80085FD0AC0809125
:104A2000E8008B778093E8000E94F709811599F3DD
:104A3000DDCF8091F100F601808381E0A81AB108F2
:104A4000A9F28FEFC81AD80AE6CF1A828DE08B83BD
:104A500024C08A81833091F138F48130B9F08230FA
:104A600061F08FEF898319C0843069F18630C9F70E
:104A70001B821C821D8288E007C088E290E00E94B1
:104A8000A22E1B821C821D828E8307C00E942E09CB
:104A90007CD66B837C838D839E83E091AF04F09101
:104AA000B004309709F446CD0284F385E02D3097A9
:104AB00009F440CD60E2C70109953CCD8B8181119D
:104AC000ECCF1C82EACF1B821C821D821E82E5CFA6
:104AD0008A81823019F0853001F3C3CF6B817C81EC
:104AE0008D819E8152D688E290E00E94C32ED5CF60
:104AF0004C816B818A810E940A0D9827892798270B
:104B00008D839E83CACF2D813E8132272327322772
:104B10004C816B818A810E94EE0BBFCF0E943A0CC0
:104B2000BCCF80E18A83B9CF83E08A8381E98FCFCC
:104B30004A805B80542445245424612C712C5701F5
:104B40008C816701C80ED11CAC14BD0409F4A5CF3B
:104B500081E9481683E058066104710480F4C201BB
:104B600081599F4F0E94A22EF50184838FEFA81ACE
:104B7000B80A8FEF481A580A680A780AE5CF80E029
:104B8000F3CF3C808A809B80982489249824A12C90
:104B9000B12C6701250132014314510461047104F1
:104BA00008F07BCF81E9881683E09806A104B10460
:104BB00038F4F6016481C40181599F4F0E94C32ECD
:104BC0008FEF481A580A680A780A8FEF881A980AED
:104BD000A80AB80A8FEFC81AD80ADECF0E94C013FD
:104BE0005CCF87E09FCF3C808A809B80982489247B
:104BF0009824A12CB12C250132016E0185E0C80E4C
:104C0000D11C431451046104710408F046CF8AE2B8
:104C100088169104A104B10490F4C40189960E94FD
:104C2000A22EF60181936F018FEF481A580A680A85
:104C3000780A8FEF881A980AA80AB80AE2CF80E0AB
:104C4000F0CF3C808A809B80982489249824A12CD2
:104C5000B12C670125013201431451046104710430
:104C600008F01BCF8AE288169104A104B10430F445
:104C7000F6016481C40189960E94C32E8FEF481A01
:104C8000580A680A780A8FEF881A980AA80AB80A98
:104C90008FEFC81AD80AE0CF41E08C81811101C0A2
:104CA00040E06B818A810E942F0D27CF2D813E81AC
:104CB00032272327322741E08C81811101C040E057
:104CC0006B818A810E940F0CE8CE2B30310508F0F1
:104CD00021CE50CE2B30310508F0D4CD03CE7894C0
:104CE0001F921FB61F9211248F939F93AF93BF9370
:104CF0008091170290911802A0911902B0911A02A6
:104D00000196A11DB11D8093170290931802A093E4
:104D10001902B0931A02BF91AF919F918F911F908A
:104D20001FBE1F9018951F920F920FB60F9211245D
:104D30002F933F934F935F936F937F938F939F93A3
:104D4000AF93BF93EF93FF938091E10082FF09C07F
:104D50008091E20082FF05C08091E1008B7F80930B
:104D6000E1008091DA0080FF24C08091D80080FFAC
:104D700020C08091DA008E7F8093DA008091D90084
:104D800080FFA9C080E189BD82E189BD09B400FE30
:104D9000FDCF81E08093870480910602811109C0D4
:104DA0000E94770A0E94280A8091E2008460809322
:104DB000E2008091E10080FF1AC08091E20080FF54
:104DC00016C08091E2008E7F8093E2008091E20025
:104DD00080618093E2008091D80080628093D80047
:104DE00019BC85E08093870483E08093160180914D
:104DF000E10084FF2FC08091E20084FF2BC080E19E
:104E000089BD82E189BD09B400FEFDCF8091D80043
:104E10008F7D8093D8008091E1008F7E8093E100A8
:104E20008091E2008F7E8093E2008091E2008160B9
:104E30008093E20080910502811509F452C084E05C
:104E40008093870480918704843009F052C082E007
:104E5000809316018091E10083FF2CC08091E200D5
:104E600083FF28C08091E100877F8093E10082E08A
:104E700080938704109205028091E1008E7F8093D9
:104E8000E1008091E2008E7F8093E2008091E20059
:104E900080618093E20042E060E080E00E94A80927
:104EA0008091F00088608093F00081E0809316018B
:104EB00080931501FF91EF91BF91AF919F918F91D9
:104EC0007F916F915F914F913F912F910F900FBE06
:104ED0000F901F90189519BC10928704109206022B
:104EE00068CF8091E30087FF02C083E0A9CF81E013
:104EF000A7CF81E0ADCF1F920F920FB60F92112472
:104F00001F932F933F934F935F936F937F938F9351
:104F10009F93AF93BF93CF93DF93EF93FF93E9EE0C
:104F2000F0E080811091EC008F7010FB112717F9D1
:104F3000182B1082C0EFD0E08881877F8883789417
:104F40000E947E16E9EEF0E01082888188608883F6
:104F50001F701083FF91EF91DF91CF91BF91AF91BF
:104F60009F918F917F916F915F914F913F912F9181
:104F70001F910F900FBE0F901F901895EF92FF9208
:104F80001F93CF93DF93182FEB011092BC0084EA9C
:104F90008093BC000E9447147C018091BC0087FF75
:104FA00026C08091B900887F883029F08091B900AF
:104FB000887F803189F51093BB0084E88093BC0022
:104FC0000E9447147C018091BC0087FF1EC0209185
:104FD000B900287F80E090E0283189F081E090E0FE
:104FE000203409F480E091958195910908C0C701AA
:104FF0000E945314C817D90780F68EEF9FEFDF91F8
:10500000CF911F91FF90EF900895C7010E94531414
:10501000C817D907C0F6F1CF8FEF9FEFF0CF1092EE
:10502000B9008CE08093B80008950F931F93CF933D
:10503000DF93EB018093BB0084E88093BC000E9467
:1050400047148C018091BC0087FF10C02091B900EB
:10505000287F81E090E0283209F480E091958195E5
:105060009109DF91CF911F910F910895CF3FDC07F8
:1050700049F3C8010E945314C817D90718F78EEFD7
:105080009FEFEFCFA0E0B0E0E7E4F8E227C3982E6F
:10509000862E772E6A0179010E9447145C0184E113
:1050A000E816F10410F18FEFE816FE0409F1C701CC
:1050B00064E170E0FAD2162F072F612F702F892D2F
:1050C0005DDFEC01892BB1F4082D172DC00ED11E28
:1050D0000C151D0511F02097C1F084E98093BC00E8
:1050E000CE01CDB7DEB7EDE015C311E000E0E5CFAE
:1050F00015E0FCCF8FEFE816FE04F9F2C5010E941F
:105100005314E816F906C8F6DFCFB701F80181910C
:105110008F018BDFEC01DCCFA0E0B0E0E1E9F8E249
:10512000DDC2982E862E772E6A0189010E944714CF
:105130005C010431110500F10F3F100701F1C801B6
:1051400064E170E0B2D2EB01BE01892D17DF7C0172
:10515000892BB9F4C82DD72DCC0EDD1ECC15DD055D
:1051600019F0E114F104B9F084E98093BC00C7019F
:10517000CDB7DEB7EDE0CEC2C1E0D0E0E5CFC5E00F
:10518000FCCF0F3F100701F3C5010E94531408170D
:105190001907D0F6DFCFFE018491B80146DF7C010C
:1051A0002196DCCFA0E0B0E0E7EDF8E296C2982EC1
:1051B000862E742E652E6901E8010E9447145C0159
:1051C0000431110508F10F3F100711F1C80164E126
:1051D00070E06BD2F62EE72E6F2D7E2D892DCEDE60
:1051E0008C01892BC1F0CF3FDC07B1F3C5010E94D0
:1051F0005314C817D90780F784E98093BC00C8010D
:10520000CDB7DEB7EEE085C2FF24F394E12CE4CF06
:1052100085E0F82EFBCFBE01882D07DF8C01E72C3F
:10522000F62CCE0CDF1CEC14FD0431F30115110536
:1052300019F7BE01F70181917F01F7DE8C01F3CFF1
:1052400003D0E39528C0D4C03FD0E8F3E894E0E071
:10525000BB279F57F0F02AED3FE049EC06C0EE0F68
:10526000BB0F661F771F881F28F0B23A62077307CB
:10527000840728F0B25A620B730B840BE3959A955E
:1052800072F7803830F49A95BB0F661F771F881F1E
:10529000D2F79048A1C0EF93E0FF06C0A2EA2AED42
:1052A0003FE049EC5FEB3DD0C5D00F90039401FC8B
:1052B0009058E6EEFDE59FC057FD9058440F551FEE
:1052C00059F05F3F71F04795880F97FB991F61F088
:1052D0009F3F79F087950895121613061406551FFF
:1052E000F2CF4695F1DF08C0161617061806991F6B
:1052F000F1CF869571056105089408959F93A4DF09
:105300000F9007FCEE5FC7CF87D030F08CD020F035
:1053100031F49F3F11F41EF46BC00EF4E095E7FBEF
:1053200053C0E92FC9DF80F3BA17620773078407F8
:10533000950718F071F49EF58EC00EF4E0950B2ED3
:10534000BA2FA02D0B01B90190010C01CA01A001D7
:105350001124FF27591B99F0593F50F4503E68F132
:105360001A16F040A22F232F342F4427585FF3CF73
:10537000469537952795A795F0405395C9F77EF444
:105380001F16BA0B620B730B840BBAF09150A1F08D
:10539000FF0FBB1F661F771F881FC2F70EC0BA0F13
:1053A000621F731F841F48F4879577956795B7959B
:1053B000F7959E3F08F0B3CF9395880F08F0992793
:1053C000EE0F97958795089597F99F6780E870E0AD
:1053D00060E008959F3F31F0915020F487957795D4
:1053E0006795B795880F911D9695879597F90895BC
:1053F0009FEF80EC08959F938F937F936F93FF931C
:10540000EF939B01AC012ED0EF91FF918ED02F91A5
:105410003F914F915F9126C000240A9416161706FB
:1054200018060906089500240A9412161306140695
:1054300005060895092E0394000C11F4882352F0F8
:10544000BB0F40F4BF2B11F460FF04C06F5F7F4FB0
:105450008F4F9F4F0895E894BB2766277727CB018E
:1054600097F908950BD0E6CFD7DF28F0DCDF18F0EE
:10547000952309F0A9CFBCCF1124EECF1DDFA0F3F7
:10548000959FD1F3950F50E0551F629FF001729FD9
:10549000BB27F00DB11D639FAA27F00DB11DAA1FF8
:1054A000649F6627B00DA11D661F829F2227B00D45
:1054B000A11D621F739FB00DA11D621F839FA00DD0
:1054C000611D221F749F3327A00D611D231F849F20
:1054D000600D211D822F762F6A2F11249F57504077
:1054E0008AF0E1F088234AF0EE0FFF1FBB1F661F12
:1054F000771F881F91505040A9F79E3F510570F0CB
:1055000063CFAACF5F3FECF3983EDCF386957795A7
:105510006795B795F795E7959F5FC1F7FE2B880FC5
:10552000911D9695879597F90895DF93CF931F93D3
:105530000F93FF92EF92DF927B018C01689405C07C
:10554000DA2EEF019BDFFE01E894A59125913591BC
:1055500045915591AEF3EF01E4DEFE019701A801FC
:10556000DA9479F7DF90EF90FF900F911F91CF9130
:10557000DF9108955058BB27AA27D3DE5BCF04D014
:105580006894B11169CF08959FDE88F09F5790F01D
:10559000B92F9927B751A0F0D1F0660F771F881F58
:1055A000991F1AF0BA95C9F712C0B13081F053DFD4
:1055B000B1E0089550CF672F782F8827B85F39F072
:1055C000B93FCCF3869577956795B395D9F73EF4B7
:1055D00090958095709561957F4F8F4F9F4F08955F
:1055E000E89409C097FB3EF490958095709561957D
:1055F0007F4F8F4F9F4F9923A9F0F92F96E9BB2733
:105600009395F695879577956795B795F111F8CFAE
:10561000FAF4BB0F11F460FF1BC06F5F7F4F8F4F19
:105620009F4F16C0882311F096E911C0772321F00F
:105630009EE8872F762F05C0662371F096E8862FA7
:1056400070E060E02AF09A95660F771F881FDAF7FE
:10565000880F9695879597F9089503D008F48FEFF2
:105660000895990F0008550FAA0BE0E8FEEF1616F3
:105670001706E807F907C0F012161306E407F50746
:1056800098F0621B730B840B950B39F40A2661F0BA
:10569000232B242B252B21F408950A2609F4A1405D
:1056A000A6958FEF811D811D0895AA1BBB1B51E19B
:1056B00007C0AA1FBB1FA617B70710F0A61BB70B82
:1056C000881F991F5A95A9F780959095BC01CD0127
:1056D00008952F923F924F925F926F927F928F9296
:1056E0009F92AF92BF92CF92DF92EF92FF920F9371
:1056F0001F93CF93DF93CDB7DEB7CA1BDB0B0FB67B
:10570000F894DEBF0FBECDBF09942A883988488837
:105710005F846E847D848C849B84AA84B984C884CD
:10572000DF80EE80FD800C811B81AA81B981CE0FC4
:10573000D11D0FB6F894DEBF0FBECDBFED010895A9
:10574000992778E0880F991F961708F0961B881FF5
:105750007A95C9F78095089597FB072E16F4009463
:1057600006D077FD08D0A1DF07FC05D03EF4909568
:1057700081959F4F0895709561957F4F0895EE0F25
:10578000FF1F0590F491E02D09946927962769275A
:10579000782787277827089590958095709561954B
:1057A0007F4F8F4F9F4F0895FB01DC0102C0059092
:1057B0000D9241505040D8F70895FB01DC0104C020
:1057C0008D910190801921F441505040C8F7881BF9
:1057D000990B0895AEE0B0E0EFEEFBE28ACF86E0F1
:1057E0008C832B893C8929833A838D899E898130DA
:1057F00030E8930710F080E090E801978D839E8356
:10580000AE01475E5F4F6F89788DCE01019612D051
:105810004D815E8157FD0BC0EF81F8854E175F0704
:105820000CF4FA012B893C89E20FF31F10822E96AB
:10583000E2E07BCFACE0B0E0EFE1FCE24DCF5C0119
:105840006B017A01FC0116821782838181FFC4C13A
:105850002AE0522EF5012381F60123FD859123FFD5
:1058600081916F01811509F423C1853239F423FD3B
:10587000959123FF91916F01953221F4B50190E04C
:10588000C4D1E8CF30E0712C00E010E0103210F508
:105890009B32C9F050F49032B9F09332C9F09E3285
:1058A00061F516FD05C1106405C09D3279F0903395
:1058B00099F41160F60123FD959123FF91916F01F9
:1058C0009111E4CF23C012601460F4CF1860F2CFBE
:1058D0001061F0CF17FD1AC080ED890F8A30F8F6FD
:1058E00016FF05C0759C800D1124782EE3CF059D11
:1058F000800D1124082F1062DDCF9C3611F4106842
:10590000D9CF9C3409F43EC09836A1F2892F8F7DFF
:1059100085548330C8F1933609F45CC0933709F499
:1059200067C0933509F472C0943619F0993609F0BE
:105930009BC0F70117FF91C0619171918191919185
:105940007F011F7697FF02C027DF10682AE030E052
:105950004E014FEF841A940AA40196D1682E68185C
:1059600016FFCBC0812F8E7F671408F0C5C014FFCF
:1059700013C112FD07C11E7E972C812F867809F472
:10598000C7C005C131E096CF311501F1F8E0EF0E47
:10599000F11C8FE3898391E0692E712C4E018FEF0A
:1059A000881A980A1F7713FD04C06016710408F462
:1059B0003CC06114710409F03EC0011509F44ACFDE
:1059C000B50180E290E021D10150F7CF44E0E40E30
:1059D000F11CDFCFF70180818983F2E0EF0EF11C2B
:1059E00081E0682E712C4E014FEF841A940ADACFB1
:1059F000F701819091907F01672D70E016FD02C044
:105A00006FEF7FEFC401F6D03C01CCCFF70181905E
:105A100091907F01672D70E016FD02C06FEF7FEF60
:105A2000C401DDD03C011068BECFB50180E290E03A
:105A3000ECD00150BACFF40117FD859117FF819189
:105A40004F01B50190E0E1D081E0011101C080E09B
:105A5000081BF1E06F1A7108ACCF61917191872F2B
:105A6000880F880B982F6CCF9537C1F41F7E1C8749
:105A70002AE030E0FC85F7FF39C0F70161917191B0
:105A8000819191917F014E014FEF841A940AA401F4
:105A9000FBD0682E68181C851F7762CF812F897F05
:105AA0008C87903791F050F49835B1F09F36D9F04B
:105AB000F501868197812C96EFE02ACE9837C1F7C1
:105AC00014FD06C020E130E0D5CF9C8590619C8715
:105AD000EC85E460EC87F6CF14FF02C016601C87EB
