:1000000083C400009EC400009CC400009AC4000089
:1000100098C4000096C4000094C4000092C400007C
:1000200090C400008EC400000C948F260C94772797
:100030000C94201486C4000084C4000082C4000014
:1000400080C400007EC400007CC400007AC40000AC
:1000500078C400000C946B2674C4000072C40000C5
:1000600070C400006EC400006CC400006AC40000CC
:1000700068C4000066C4000064C4000062C40000DC
:1000800060C400005EC400005CC400005AC40000EC
:1000900058C4000056C4000054C4000052C40000FC
:1000A00050C400004EC400004CC400000501090209
:1000B000A10185020901A1000509190129081500FE
:1000C0002501950875018102050109300931158165
:1000D000257F95027508810609381581257F9501D0
:1000E00075088106050C0A38021581257F95017572
:1000F000088106C0C005010980A101850319012AF4
:10010000B700150126B700950175108100C0050CD8
:100110000901A101850419012AA002150126A002E6
:10012000950175108100C005010906A1018506052C
:100130000719E029E71500250195087501810205D9
:1001400007190029EF1500250195F07501810205B9
:10015000081901290595057501910295017503910D
:1001600001C00660FF0961A1010962150026FF00B8
:100170009520750881020963150026FF00952075FA
:10018000089102C005010906A101050719E029E748
:1001900015002501950875018102950175088101F9
:1001A0000507190029FF150026FF0095067508812F
:1001B000000508190129051500250195057501910E
:1001C00002950175039101C009025B00030100A0C3
:1001D000FA090400000103010100092111010001D5
:1001E00022440007058103080001090401000203FD
:1001F00000000009211101000122220007058203ED
:100200002000010705030320000109040200010387
:1002100000000009211101000122B6000705840336
:10022000200001120100020000000827170400014D
:100230000001020001220374007200610063006B80
:1002400000620061006C006C005F006D006F006474
:100250000075006C00650000000C0361006B006914
:100260000032003700000004030904D100D200D39B
:1002700000D300D200057E007E017E080004000548
:10028000000600DA00D900D500D400037E027EDA31
:1002900000D9002020200020200043504920202F9A
:1002A000205363446976202F20416E676C650A00F5
:1002B000437572736F720A005363726F6C6C0A003D
:1002C0004D6F6465203A2000556E6465660A004DE6
:1002D0006F7573650A0052616973650A004C6F7728
:1002E00065720A00426173650A004C617965723A71
:1002F000200000AE00AF0000000000003E5B4F5B3E
:100300003E003E6B4F6B3E001C3E7C3E1C00183C8A
:100310007E3C18001C577D571C001C5E7F5E1C0035
:1003200000183C180000FFE7C3E7FF00001824187E
:100330000000FFE7DBE7FF0030483A060E00262901
:1003400079292600407F05050700407F05253F00ED
:100350005A3CE73C5A007F3E1C1C0800081C1C3E0F
:100360007F0014227F2214005F5F005F5F00060998
:100370007F017F00006689956A00606060606000B0
:1003800094A2FFA2940008047E04080010207E209E
:10039000100008082A1C0800081C2A0808001E1063
:1003A000101010000C1E0C1E0C0030383E383000AF
:1003B000060E3E0E060000000000000000005F0078
:1003C0000000000700070000147F147F1400242A97
:1003D0007F2A120023130864620036495620500019
:1003E000000807030000001C224100000041221CFD
:1003F00000002A1C7F1C2A0008083E080800008014
:100400007030000008080808080000006060000064
:100410002010080402003E5149453E0000427F4042
:1004200000007249494946002141494D33001814E2
:10043000127F10002745454539003C4A49493100A3
:1004400041211109070036494949360046494929E1
:100450001E000000140000000040340000000008EE
:100460001422410014141414140000412214080032
:100470000201590906003E415D594E007C121112DD
:100480007C007F49494936003E41414122007F417D
:1004900041413E007F49494941007F090909010066
:1004A0003E41415173007F0808087F0000417F41B1
:1004B00000002040413F01007F08142241007F409E
:1004C000404040007F021C027F007F0408107F0034
:1004D0003E4141413E007F09090906003E4151214C
:1004E0005E007F0919294600264949493200030167
:1004F0007F0103003F4040403F001F2040201F007D
:100500003F4038403F00631408146300030478043C
:1005100003006159494D4300007F414141000204FD
:1005200008102000004141417F0004020102040044
:100530004040404040000003070800002054547829
:1005400040007F284444380038444444280038445C
:1005500044287F0038545454180000087E090200D3
:100560001824241C78007F080404780000447D408F
:1005700000002040403D00007F1028440000004162
:100580007F4000007C04780478007C080404780034
:100590003844444438007C182424180018242418B3
:1005A0007C007C08040408004854545424000404CB
:1005B0003F4424003C4040207C001C2040201C0084
:1005C0003C4030403C004428102844004C9090901F
:1005D0007C004464544C4400000836410000000094
:1005E000770000000041360800000201020402000A
:1005F0003C2623263C000000000000000000C060F4
:10060000C0D0C8E86C6464646C686898D06000808E
:10061000000000000000000000808080000000005A
:10062000000000008080800000000000000000004A
:10063000808080000000000000000000808000003A
:100640000000000000E0E00000000000000000C02A
:10065000E0E0E000000000000080E0E0200000009A
:10066000000000000000000000000000000000008A
:1006700000000000E0F0F0F0E0ECEEF7F370200096
:100680007C7C7C7E007E7E7E7F7F7F000080C0E061
:100690007E5B4F5BFEC00000C000DCD7DEDEDED735
:1006A000DC00C000000000000000000000000000AE
:1006B000000000000000000000000000FC8778FE41
:1006C000FE010178848202028686030187FFFC0313
:1006D000FE00000000FCFECF0303030387C7860073
:1006E00078FEFF8703030303CFFEFC0038FEFF877D
:1006F00003030303C7868400FCFE87030303038709
:10070000FEFC300303FFFF8303000070787E6F63FD
:1007100061FFFF606000F0FCFF0F0F0E8EFCF860C1
:10072000003030303030FFFF30303030000000001B
:10073000000000000F1F3F7F7F7F7F7F3F1E0C0068
:100740001F1F1F3F003F3F3F7F7F7F00307B7F7831
:1007500030202030787F3B0003000F7F0F0F0F7F8A
:100760000F00030000000000000000000000000077
:100770000000000000000000000000000003041959
:100780003F27425858D99999D85D5F6E2C190C07AC
:100790000100000000000103030303030303010041
:1007A0000001010303030303030100000000010330
:1007B0000303030303010000000103030303030316
:1007C000010000000001030303000000000000001E
:1007D00000030300000000010303030303030100FF
:1007E0000000000000000303000000000000000003
:1007F00000000000000000000000000000000000F9
:1008000000000000000000000000000000000000E8
:1008100000000000000000000000000000000000D8
:1008200000000000000000000000000000000000C8
:1008300000000000000000DA0281FFD9F1DB20A4F3
:10084000A62EAF00A0C0D30000A1C8D30000AED533
:1008500080A81F408D142000000000000000000050
:100860000000000000000000000000000000000088
:100870000000000000000000000000007E0F00D417
:10088000FFFFFFC70000007800000000000000002C
:100890002A2B2800000000000000000000000000DB
:1008A00000000029000000002C1E342021222434E6
:1008B0002627252E362D3738271E1F2021222324B8
:1008C00025263333362E37381F0405060708090A54
:1008D0000B0C0D0E0F101112131415161718191AF0
:1008E0001B1C1D2F3130232D350405060708090A6E
:1008F0000B0C0D0E0F101112131415161718191AD0
:100900001B1C1D2F3130354C11241FBECFEFDAE0F8
:10091000DEBFCDBF11E0A0E0B1E0EAECFEE502C031
:1009200005900D92AE3CB107D9F725E0AEECB1E0F1
:1009300001C01D92A931B207E1F70E9413210C9466
:10094000ED2E5ECB982F92959F7061F420E0982F4A
:10095000892F8695869511F02E5F982F892F869581
:10096000820F089524E0F4CFCF93C82FEBDF8130BE
:1009700031F08250823028F01092120502C080932C
:1009800012058C2FCF9108958093C7040895ECDF52
:100990008093C804089521E001C0220F8A95EAF7E8
:1009A0008091C804822BF3CF21E001C0220F8A95E9
:1009B000EAF7822F80959091C8048923E8CFCF93DE
:1009C000C1E061FDC4E060FDCC0F62FDC29593E023
:1009D000769567959A95E1F79B01220F331F260FB5
:1009E000371F420F531FFA0140E050E090E0619141
:1009F000DF019C01042E02C0369527950A94E2F788
:100A00002695220B26272C2326272E934F5F5F4FF8
:100A10004330510561F7CF910895A82FA77023E0C7
:100A2000969587952A95E1F79C01220F331F820F37
:100A3000931F680F791FFB0140E050E080E0219197
:100A400030E00A2E02C0369527950A94E2F721700D
:100A5000042E01C0220F0A94EAF7822B4F5F5F4FEA
:100A60004330510561F70895282F862F911107C053
:100A7000622F70E040EB54E0233040F008959C5F1B
:100A80009230E0F7622F70E04DEA54E098CF911178
:100A900006C060EB74E0833038F0892F08959C5FC6
:100AA000923030F46DEA74E090E0B7DF982FF5CF24
:100AB00090E0F3CF9091C80421E030E0F90101C04B
:100AC000EE0F8A95EAF7D90101C0AA0F6A95EAF7F5
:100AD000EA2B01C0220F4A95EAF7892F8E23E813EB
:100AE00003C0892F822B53CF2095822F8923FBCFE0
:100AF000E091CE049091CD04E91302C080E0089506
:100B00009F0157E0E59FF0011124E153FB4F518114
:100B1000561306C05081581303C05581541305C0A5
:100B20002F5F3F4FF901E770E7CF81E00895809193
:100B3000CE042091CD04281301C00895019687703A
:100B4000FACF9091C904809589238093C904282FF6
:100B5000277061F4891751F09091CB0492FF06C081
:100B600086958695869520DF1092C9040895809118
:100B7000C4049091CC04892B9091C5049115C9F0BF
:100B8000892B90911501913021F49091CA0497FD21
:100B900011C096E022ED31E040E09150F901508122
:100BA0002F5F3F4F51114F5F9111F7CF41111092BD
:100BB000C50408959EE12AED31E0EECF8095982F8F
:100BC0008091C40489238093C4040895803E9105D4
:100BD000D1F1C8F48133910509F481C048F4893218
:100BE000910509F471C08A32910509F47FC0089516
:100BF00089339105E1F082389105C9F0853391057B
:100C000009F45DC00895843E9105D1F148F4823E17
:100C1000910531F1833E910541F181EE90E0089517
:100C2000863E9105C1F1873E9105F1F1089520912D
:100C3000CA04237009F064C02091CB0423FF14C0C0
:100C400089E290E008952091CA0420FD45C03091CA
:100C5000CB0430FF09C024FD24C083EE90E008954A
:100C60002091CA0422FDF7CF08952091CA0422FDE5
:100C700044C03091CB0430FD43C024FFF5CF11C0F8
:100C80002091CB0421FFF0CF8091CA0484FD09C0DC
:100C900087EE90E008952091CA0423FFE5CF24FF5A
:100CA000F7CF80E090E008952091CA0423FD2BC087
:100CB0003091CB0431FFE1CF84EE90E00895209194
:100CC000CA0425FFD1CFBCCF2091CA0425FD1EC088
:100CD0002091CB0423FFC8CF89E390E008952091B1
:100CE000CA0426FFC1CF8AE290E008952091CA0489
:100CF00026FFBACF81E390E0089582EE90E0089558
:100D000080EE90E0089586EE90E0089585E390E00F
:100D100008959091CA0492FF10C041E0282F2471D9
:100D2000243009F040E031E0282F2871283009F004
:100D300030E0431711F02CE0822793FF10C041E010
:100D4000282F2471243109F040E031E0282F287148
:100D5000283109F030E0431711F02CE08227309160
:100D6000CB0430FF10C051E0282F2171213009F051
:100D700050E041E0282F2871283009F040E0541756
:100D800011F029E0822731FF10C041E0282F2171A6
:100D9000213109F040E031E0282F2871283109F095
:100DA00030E0431711F029E0822794FF02C083FD51
:100DB000877E08950F931F93CF93DF9307DFEC0196
:100DC000D23508F04DC0D03508F0C3C0C03ED105C3
:100DD00030F5CD3CD10508F09AC0C83AD10578F479
:100DE000C53AD10508F090C0C130D10599F1CE01C6
:100DF0000497813A910570F1C0E0D0E02BC0CE019C
:100E0000885A91094B97C0F7C85AD0E0CC0FDD1F24
:100E1000C35ADE4F0990D881C02DD4641BC0D03492
:100E200090F4D03208F0A8C0C83ED10598F0CE01A9
:100E300091509F3108F78D2F6CDF082F8C2F90E099
:100E4000C5DE902B54C08C2F90E0C0DEDF70C82F21
:100E5000D92BD06ACE01DF91CF911F910F910895C8
:100E6000C03882E5D807B8F5C03682E5D80708F063
:100E700056C0C03482E5D807C8F4C03282E5D8072E
:100E800008F047C08C2F8695869520E2829FC0018E
:100E90001124C37021E030E002C0220F331FCA9535
:100EA000E2F7E901C82BD92BDD68D4CF8C2F8695CA
:100EB0008695877020E2829FC0011124C37021E0D3
:100EC00030E002C0220F331FCA95E2F7E901C82BB8
:100ED000D92BDC68BFCFC03C82E5D80750F48C2FFB
:100EE0008F71C03AD24580F5982F84EF906AEC015B
:100EF000B1CFCE01805C9245809708F07DCFDC2F8A
:100F0000DF71C0EFD06AA6CFA497D064A3CFD0651D
:100F1000A1CF8C2F8F71D82FC1EFD06A9BCF8C2F90
:100F200086958695877020E2829FC0011124C37048
:100F300021E030E002C0220F331FCA95E2F7E90139
:100F4000C82BD92BDA6886CFE4DEC0E0D82FD06278
:100F500081CF8C2F8F71DDDE93E0CC0FDD1F9A9552
:100F6000E1F7DF70282F84FF04C090E1899F900192
:100F70001124C22FD0696ECF8D2F8F71CADE082F3A
:100F80008C2F90E023DE902BEC01E1CF80E00895E0
:100F90002AB16E566F7081E001C0880F6A95EAF73A
:100FA000982F909592239AB99BB1892B8BB908956C
:100FB00089B190E06E566F7002C0959587956A95DD
:100FC000E2F781700895382F25EB3203C001112418
:100FD00097FF04C080589109892F089580589F4F2A
:100FE000FBCF8091B50480FD14C081FD14C082FD4B
:100FF00016C08091B404811581F08E3180F420E513
:10100000829FC00111246EE170E00E94A82B862F00
:10101000089584E1089588E2089588E0089580E5C0
:1010200008958091B50480FD17C081FD17C082FD31
:1010300019C08091B304811599F0883298F428E0A2
:10104000829FC001112468E270E00E94A82B611504
:10105000710551F0862F089562E0FCCF64E0FACF6D
:1010600061E0F8CF68E0F6CF81E00895E091A30455
:10107000F091A404309739F00190F081E02D309781
:1010800011F00995089580E00895E091A304F0918E
:10109000A404309759F026813781232B39F022E0C0
:1010A000DC012C930680F781E02D09950895A3E0DB
:1010B000B0E0EDE5F8E00C94752B20911102309131
:1010C000120228173907B1F080931102909312028F
:1010D000E091A304F091A404309761F00084F185BD
:1010E000E02D309739F023E029838A839B83CE015A
:1010F000019609952396E2E00C94912BA3E0B0E0D1
:10110000E4E8F8E00C94752B20910F023091100266
:1011100028173907B1F080930F0290931002E091E5
:10112000A304F091A404309761F00084F185E02DD0
:10113000309739F024E029838A839B83CE0101967E
:1011400009952396E2E00C94912B90911501913032
:1011500099F0A2EDB1E0EFEF90E02C91821759F0F9
:101160001196EF3F19F4211101C0E92F9F5F9630CE
:10117000A1F7EF3FC1F408959091CA0497FFE9CF1A
:10118000E82FE695E695E695803FA8F7F0E0E8526F
:10119000FE4F877021E001C0220F8A95EAF7828115
:1011A000822B82830895FE2FFF0FFF0BE053FE4F2B
:1011B000F8CF90911501913021F49091CA0497FDD8
:1011C0000CC0E2EDF1E09191891302C0DF011E92A3
:1011D00091E0E83DF907B9F70895E82FE695E6951F
:1011E000E695803FC8F7F0E0E852FE4F9DEF81FDA5
:1011F00097EF80FF959582FD929582818923828366
:101200000895DC01FB0111969C911197818198133F
:1012100022C012968C911297811519F09281891330
:101220001AC013968C911397811519F09381891325
:1012300012C015968C911597811519F09581891317
:101240000AC014969C91911521F081E02481291304
:1012500003C080E001C081E0817008958091140195
:1012600008952FB7F89460910B0270910C02809151
:101270000D0290910E022FBF089587E797E78093A4
:1012800000089093010888E19AE00FB6F894A895B9
:10129000809360000FBE90936000FFCFFC0120910F
:1012A0000102309102022617370748F061157105D7
:1012B00029F49091E8009E779093E8009B0190E0DC
:1012C0002115310541F4911106C08091E80082FF9B
:1012D00032C080E0089580917B048115C1F1853092
:1012E000C1F18091E80083FD30C08091E80082FD6B
:1012F000ECCF8091E80080FFE3CF8091F300409134
:10130000F200582F2115310519F04830510558F0D9
:1013100091E04830510509F090E04091E8004E77A7
:101320004093E800CDCF81918093F10021503109A5
:101330004F5F5F4FE7CF80917B04811541F085308F
:1013400041F08091E80083FFC0CF81E0089582E002
:10135000089583E00895982F9093E900891771F01C
:101360007091EC002091ED005091F00021FD09C03A
:101370009F5F973089F78093E9000895762F242F97
:1013800050E03091EB003E7F3093EB003091ED0068
:101390003D7F3093ED003091EB0031603093EB00F6
:1013A0007093EC002093ED005093F0002091EE003C
:1013B00027FDDECF08958091FB0187FF13C0809148
:1013C000E80082FF06C08091E8008B778093E800F8
:1013D000089580917B048111F2CF089580917B0460
:1013E0008115D9F38091E80080FFF8CF8091E80063
:1013F0008E77ECCF2091E4003091E50095E6A901CD
:101400002091EC00822F817020FF06C08091E800BF
:1014100080FF06C080E008952091E80022FD1AC0F8
:1014200080917B04811589F0853089F08091EB00F3
:1014300085FD0FC02091E4003091E500421753076D
:10144000F9F29150E1F684E0089582E0089583E096
:10145000089581E00895CF93DF93C8EDD0E08881AF
:101460008F7E8883E7EDF0E080818160808384E077
:1014700082BF81E08093FA0188818E7F8883E2EECB
:1014800010821092DA00A1EEB0E01C9288818F7772
:10149000888388818068888388818F7D888319BC50
:1014A00010927B041092F901109266041092F801D8
:1014B000A0EE8C918B7F8C9388818160888342E041
:1014C00060E080E048DFA1EEB0E08C918E7F8C93ED
:1014D000E2EEF0E08081816080838081886080839B
:1014E000E0EE80818E7F8083888180618883DF91B8
:1014F000CF910895E8EDF0E080818E7F8083109297
:10150000E2001092DA001092E100A0EEB0E08C91BF
:1015100081608C9380818F77808319BCA7ED8C913B
:101520008E7F8C9380818F7E80831092FA01089544
:1015300086988E9880E098E08F9825E02A95F1F7BC
:10154000000022277E992395880F822B8F9A25E011
:101550002A95F1F70000915079F70895869A27E0CF
:1015600030E090E08F98AC01022E02C0559547956F
:101570000A94E2F740FF0EC08E9A4AE04A95F1F7CE
:1015800000C08F9A2150310968F785E18A95F1F7FB
:10159000000008958E98F1CFCF93C62F29988068C8
:1015A000DDDF8C2FDBDF299ACF91089581E08093D6
:1015B0000E0596E090930F0580931005809311051A
:1015C0001092120561E071E0AC018FE090E00E94A2
:1015D000D12E60E070E0AB0183E190E00E94D12E5B
:1015E00060E982E2D9CF61E08D37910548F06DE086
:1015F000863D26E0920720F46DE770E00E94512BB3
:10160000606189E1C9CFCF93299880913B02811114
:101610000EC083E6A3DF8CDFC82F8ADF982F299ABC
:101620008C2FC7FD806897FD9068CF91089580E06A
:1016300090E0FBCFACE0B0E0E0E2FBE00C94732B79
:101640004F835887162F072F8B879C87DCDF282F27
:10165000292B11F4902F812F89879A8786E0FE012C
:101660003796DE01119601900D928A95E1F7298156
:101670003A814B815C816D817E8180E090E02C9687
:10168000E4E00C948F2B299869DF52DF95E09A955E
:10169000F1F70000299A0895CF93DF93879A869AED
:1016A000219A6AE58AE378DF8FE79FEA22E081509A
:1016B00090402040E1F700C0000010923B02A3DF01
:1016C00080E0E1DFC82F81E0DEDFD82F8EE3DBDFB3
:1016D000C23129F49D2FD13011F4863209F090E007
:1016E000892F8170DF91CF9108950F931F93CF932E
:1016F000DF93EB018A0190917B04943059F580933C
:10170000E9008FEF9091E80095FD06C095ED9A9560
:10171000F1F700008150B1F78091E80085FF1AC011
:1017200069DE811112C08091E80085FD06C08091BC
:10173000E8008E778093E800F3CF88818093F100F2
:101740000150104011F02196EECF8091E8008E7785
:101750008093E800DF91CF911F910F91089560323F
:1017600029F440E250E0BC0182E0BFCF0895CF935E
:10177000DF93EC0148E050E0BC0181E0B6DF88E097
:10178000FE01A3E0B2E001900D928A95E1F7DF91AE
:10179000CF91089540E250E0BC0184E0A6CF46E03E
:1017A00050E0BC0184E0A1CF43E050E0BC0184E004
:1017B0009CCF9091CB0492FB222720F9281771F03F
:1017C00080FB92F99093CB046091CA047091CB0492
:1017D00084E090E00E94D92E82E0B3C908951F935F
:1017E000CF93DF93122F8730B8F4611115C04330C7
:1017F00098F4C42FD0E0CC0FDD1F96E0899FC00D78
:10180000D11D1124632FCE0189960E94BF2E612F16
:10181000CE018A960E94BF2EDF91CF911F9108952D
:101820000F931F93CF93DF93142F022F8730F0F481
:1018300061111CC094E0899FE0011124CD5ADF4F53
:1018400081E08427632F9E01280F311D280F311D51
:10185000C9010E94BF2E81E090E0111102C083E017
:1018600090E0602F8C0F9D1F0E94BF2EDF91CF91C3
:101870001F910F910895A0E0B0E0E1E4FCE00C942A
:101880006F2B03E812E08BE6E82E82E0F82EC0E032
:101890006701D0E0C43090F121E030E04D2F60E0EE
:1018A0008C2F9DDFDF5F82E0C80ED11CD33091F713
:1018B00021E030E0C43020F4F801859195919C013D
:1018C00041E060E08C2FACDF21E030E0C43028F450
:1018D000F8013296859195919C0140E060E08C2F53
:1018E0009FDFCF5F0C5F1F4F86E0E80EF11CC73013
:1018F00079F6CDB7DEB7E8E00C948B2BF601859135
:1019000095919C01CBCFCF9361E572E08CEB94E095
:1019100078DCC82F811519F08CEB94E0B6DB909140
:10192000BD0486E0ECEBF4E0282F11922A95E9F74C
:101930009093BD04ECEBF4E0A1E5B2E001900D92D0
:101940008A95E1F781E0911101C080E08C2BCF9165
:10195000089580911501813061F58091CA0487FF57
:1019600028C005D98093D90140E250E063E874E0D3
:1019700088ED91E00E94D92B892BD1F080E2E8ED2F
:10198000F1E0A3E8B4E001900D928A95E1F7E091CF
:10199000A304F091A404309759F00480F581E02D60
:1019A000309731F086E08093D80188ED91E0099579
:1019B0000895DDD88093D00148E050E065EA74E0F6
:1019C00080ED91E00E94D92B892B91F388E0E0ED26
:1019D000F1E0A5EAB4E001900D928A95E1F7E0917B
:1019E000A304F091A404309719F30280F381E02D51
:1019F0003097F1F280ED91E0DACF811531F09091DE
:101A0000C404982B9093C404A4CF0895811511F0B9
:101A1000D5D89FCF08950F931F93CF93DF9387302F
:101A2000E0F461111AC04330C0F4C42FD0E0CC0FF1
:101A3000DD1F96E0899FC00DD11D1124CE0189962E
:101A40000E949E2E082FCE018A960E949E2E902FD5
:101A5000DF91CF911F910F91089580E090E0F8CF32
:101A6000FF920F931F93CF93DF93F42E873018F5D7
:101A7000611121C094E0899FE0011124CD5ADF4F0C
:101A800081E084279E01280F311D280F311DC901D7
:101A90000E949E2E082F81E090E0F11002C083E0AA
:101AA00090E08C0F9D1F0E949E2E902FCDB7DEB729
:101AB000E5E00C948E2B80E090E0F8CF462F71117A
:101AC00006C0633058F4873048F460E0A4CF7D3F0F
:101AD00041F4611103C041E0873048F080E090E0BC
:101AE00008957C3FD9F76111F9CF8730B8F760E0EE
:101AF000B7CFCF92DF92FF920F931F93CF93DF93D5
:101B00006C010091C8048091C704082BC6E0D0E0A6
:101B100010E0C8010C2E02C0959587950A94E2F753
:101B200080FD0CC02197A8F7F12C8F2DDF91CF916C
:101B30001F910F91FF90DF90CF900895FC2EB6017A
:101B40008C2FBCDF37D9019769F3EFCF1F93CF9369
:101B5000DF93FC012581C081D181CE01211579F06F
:101B6000611569F0C6DF182F682FCE010E94340579
:101B7000BE01812FA3DFDF91CF911F9108950E94B5
:101B80004705182FF5CFCF93DF93EC01B2DFBE01ED
:101B900095DF10D9DF91CF910895FC0124812115A3
:101BA00099F080819181EFDF282F92959F70963078
:101BB00099F060F4925F9F70923030F4203FB1F062
:101BC00038F481E0283E38F080E008959A5FF3CF42
:101BD00081E0243FC9F7089591E0213F09F090E0AA
:101BE00081E0283E08F080E0892B089581E0089587
:101BF000613923E072078105910528F4CB018159F1
:101C00009F4F0C949E2E80E00895CF92DF92EF922A
:101C1000FF92CF93DF93EC01C880D980EA80FB80EC
:101C2000B601C701E5DF9FEFC91AD90AE90AF90A27
:101C3000C882D982EA82FB82DF91CF91FF90EF9038
:101C4000DF90CF90089585E290E00E949E2E86322C
:101C500069F486E290E00E949E2E873039F487E294
:101C600090E00E949E2E91E0813209F090E0892F51
:101C700081700895ADE2B0E0E0E4FEE00C94652BE5
:101C800080916404833009F0C7C24091BC04509134
:101C9000BD046091BE047091BF048091C004909116
:101CA000C104C8DC2093BC043093BD044093BE043F
:101CB0005093BF046093C0047093C10486E0ECEBC2
:101CC000F4E0DE01179601900D928A95E1F780917C
:101CD000BE048DA30091BF040195F02E09878A8769
:101CE00086E0FE013796DE011D9601900D928A95E1
:101CF000E1F786E0FE013D968E010F5F1F4FD80190
:101D000001900D928A95E1F786E0F801ACEBB4E022
:101D100001900D928A95E1F786E0ECEBF4E0DE01AC
:101D2000179601900D928A95E1F786E0FE013796AD
:101D3000DE01539601900D928A95E1F786E0FE014F
:101D40007396D80101900D928A95E1F786E0F8012B
:101D5000ACEBB4E001900D928A95E1F786E0ECEBF4
:101D6000F4E0DE015F9601900D928A95E1F73090E4
:101D7000C0042090C104E0911005F0E0EE0FFF1FB9
:101D8000E85CFE4F6081718180E090E00E94EC2A67
:101D900025E33AEF4EE85CE30E942E2A4B015C01FA
:101DA0006F2DFF0C770B872F972F0E94EE2A2B01A8
:101DB0003C01B401C5010E941C296B017C016DA18D
:101DC000762F770F770B872F972F0E94EE2A6DA320
:101DD0007EA38FA398A7B401C50190580E947A29C9
:101DE00069A77AA78BA79CA79601A701B201C30197
:101DF0000E942E2A4B015C0129A53AA54BA55CA5A2
:101E00006DA17EA18FA198A50E942E2A9B01AC01F5
:101E1000B401C5010E94B62A2AE939E949E95EE31D
:101E20000E942E2A4B015C0123E333E343E35FE38B
:101E300060914C0270914D0280914E0290914F0240
:101E40000E942E2A9B01AC01B401C5010E94B72A51
:101E50004B015C0129A53AA54BA55CA5B201C301C4
:101E60000E942E2A2B013C012DA13EA14FA158A575
:101E7000B601C7010E942E2A9B01AC01B201C30129
:101E80000E94B72A2AE939E949E95EE30E942E2A2D
:101E90006B017C0123E333E343E35FE3609148029A
:101EA0007091490280914A0290914B020E942E2A21
:101EB0009B01AC01B601C7010E94B72A6B017C01EE
:101EC00080924C0290924D02A0924E02B0924F022C
:101ED00060934802D092490280934A02F0924B02EA
:101EE00020E030E040EC5FE3B401C5010E942E2AFF
:101EF0004B015C0120E030E040EC5FE3B601C7013C
:101F00000E942E2A6B017C018091120509A71DA752
:101F1000811509F4FBC0B401C5010E94BB2A8B01E5
:101F200077FF04C000271127061B170BB601C70156
:101F30000E94BB2AAB01CB0177FF04C088279927F9
:101F4000841B950B801791070CF0CBC0E12CF12C72
:101F500067016091460270914702872F880F880BB6
:101F6000982F0E94EE2A6DA37EA38FA398A760915D
:101F7000440270914502872F880F880B982F0E948A
:101F8000EE2A2B013C0180911105811509F4ADC0A9
:101F90002DA13EA14FA158A5B401C5010E94B72AA9
:101FA0004B015C019601A701B201C3010E94B62A50
:101FB0000E94BB2A6B017C01B401C5010E94BB2AAF
:101FC000AB016093460250934702C0924402D09204
:101FD0004502E0910F05F0E0EE0FFF1FEE5CFE4FB3
:101FE000E0819A010E2E02C0359527950A94E2F7FA
:101FF000C6010E2E02C0959587950A94E2F7082F28
:10200000211581F0220E322F330F330B0E2E02C01A
:10201000220F331F0A94E2F7421B530B40934602F0
:1020200050934702011509F4F5C0380E982F990F07
:10203000990B02C0880F991FEA95E2F7C81AD90ACE
:10204000C0924402D092450200E010E009A31AA316
:102050003BA22CA286E0FE017F96DE01179601903E
:102060000D928A95E1F786E0FE013796A9A5BDA5F8
:1020700001900D928A95E1F786E0E9A5FDA5DE01C4
:10208000599601900D928A95E1F786E0FE017996C6
:10209000DE01179601900D928A95E1F786E0FE0128
:1020A0003796ACEBB4E001900D928A95E1F786E0AB
:1020B000E6EBF4E0DE01179601900D928A95E1F7C8
:1020C0008091BD049885892B8093BD041CDC81110F
:1020D00002C08091500210925002AD96E2E10C9441
:1020E000812BA12CB12C450134CF9401A5016DA108
:1020F0007EA18FA198A50E94B62A4B015C01920196
:10210000A301B601C7010E94B72A52CF20E030E0F8
:1021100040E05FE3B401C5010E942E2A20914002F5
:102120003091410240914202509143020E94B72AED
:102130004B015C0160934002909241028093420205
:10214000B092430220E030E040E05FE3B601C70117
:102150000E942E2A20913C0230913D0240913E0285
:1021600050913F020E94B72A6B017C0160933C02B0
:10217000D0923D0280933E02F0923F02B401C5012D
:102180009F7720E030E040E85FE30E94292B00E0E9
:1021900087FD1AC0B401C5010E94BB2A062F762F05
:1021A000770F770B872F972F0E94EE2A9B01AC01A8
:1021B000B401C5010E94B62A6093400270934102A7
:1021C000809342029093430220E030E040E85FE3D6
:1021D000B601C7019F770E94292B87FD1BC0B6015E
:1021E000C7010E94BB2A162F762F770F770B872FF8
:1021F000972F0E94EE2A9B01AC01B601C7010E94F5
:10220000B62A60933C0270933D0280933E02909305
:102210003F021CCF10E01ACF80E05FCFAB0124E675
:1022200030E0BC0188E70E9488289C0181E0232BD4
:1022300009F080E0089580915D048115E9F011D8DE
:10224000DC01CB01805A9541AF4FBF4F80935E04B4
:1022500090935F04A0936004B093610480915C0448
:1022600081110AC062E070E084EF92E0D7DF81154F
:1022700019F081E080935C04089580915D048115DC
:1022800061F080915C04811541F062E070E082EFC2
:1022900092E0C4DF811110925C040895CF93DF9324
:1022A000C0915902D0915A028A30C1F4409162041F
:1022B000CE018B559240642F70E00E94512B481B39
:1022C000842F66E00E949C2BC82FC11103C0DF91B0
:1022D000CF910895C15080E2E1DFF7CF8D30C1F496
:1022E000CB55D24040916204642F70E0CE010E9431
:1022F000512B481BCE01840F911D923010F080E0CD
:1023000090E0855A9D4F8093590290935A02DFCFF7
:1023100096E0FE01A5E3B2E001900D929A95E1F7F7
:10232000803E08F455C086E019928A95E9F7C0917D
:102330005902D0915A0246E050E0BE0185E392E096
:102340000E94D92B9E012B553240892B41F1C901A6
:1023500045E0969587954A95E1F741E050E0BA014E
:1023600002C0660F771F8A95E2F7CB016091570292
:1023700070915802862B972BB9016B5F7F4FE5E078
:1023800076956795EA95E1F702C0440F551F6A9567
:10239000E2F7842B952B80935702909358022A5F83
:1023A0003F4F40916204642F70E0C9010E94512B9D
:1023B000481B463010F4240F311D323010F020E05D
:1023C00030E0255A3D4F2093590230935A027FCF77
:1023D00096E0899FB00111246A507D4F46E050E09D
:1023E000CE010E94D02BA3CFCF93DF93EC01FE014F
:1023F0008491811103C0DF91CF9108954FDF219621
:10240000F6CF0F931F93CF93DF93EC01FC01019064
:102410000020E9F78F0101501109C017D10728F0FA
:10242000DF91CF911F910F910895899137DFF5CFFB
:10243000A2E1B0E0EEE1F2E10C94672B80915D0443
:10244000811509F46FC18BE592E080935902909356
:102450005A02E0910F05F0E0EE0FFF1FEE5CFE4F19
:1024600010810181E0911005F0E0EE0FFF1FE85CA4
:10247000FE4FB080A180E0910E05F0E0EE0FFF1F4F
:10248000E753FE4F81818F9380818F9397E1E92EEF
:1024900091E0F92EFF92EF921F9226E0922E9F92EA
:1024A0006E018DE0C80ED11CDF92CF920E94E62B08
:1024B0000F931F93FF92EF921F929F928E01095FDD
:1024C0001F4F1F930F930E94E62BAF92BF92FF9274
:1024D000EF921F929F927E018FEFE81AF80AFF9207
:1024E000EF920E94E62B8AEE92E07EDF9091C80484
:1024F0008091C704892B0E94A2042DB73EB7285EA5
:102500003F4F0FB6F8943EBF0FBE2DBFBC2CCD2C55
:10251000D02E012F1E2D823009F410C108F006C103
:10252000811109C184EE92E05FDF80EC92E05CDF14
:1025300080911205811509F407C188EB92E054DF00
:102540008AE992E051DF8B2D9C2D5BDF87E992E0D9
:102550004BDF8D2D902F55DF83E992E045DF812FF2
:102560009F2D4FDF8091570290915802892B09F4DB
:10257000BFC080915D04811509F4BAC080915B04ED
:102580008111B6C058DE8091570290915802009791
:1025900009F4AEC080FBEE24E0F8F12C10E080FDE1
:1025A00010C041E050E0212F2F5F122F7A0102C0AE
:1025B000EE0CFF1C2A95E2F7970128233923232BE1
:1025C00091F38091630480FFC2C0912F990F990FFE
:1025D000990F392F395F80E023E0909302018093B7
:1025E0000501309303012093060124E630E047E023
:1025F00050E060E071E088E70E943E28892B09F0F6
:1026000077C080E2189FA00111248091630480FFAD
:10261000B0C0E5E1F2E080E211928A95E9F73EE28E
:10262000632E31E0732E6AE2862E61E0962E62E31D
:1026300071E0D301ED913D01D4010D914D01040FE5
:10264000152F111DF0E0EB5EFD4F80E090E027E0DC
:10265000A22EA81ABB24B394082E01C0BB0C0A9466
:10266000EAF79801255A3D4F2901D12CD2012D912D
:102670002D012B21B22F2A2D2D19277030E0AB2FE1
:10268000022E01C0AA0F0A94EAF7CA2E31952195AD
:10269000310927703327AB2F01C0A6952A95EAF799
:1026A000CA2A2081C22AC082D3942D2D2830F1F667
:1026B000019631968830910551F66615770509F037
:1026C000B8CF04E610E020E245E152E060E488E79C
:1026D0000E94CE28892B61F4E094F09480915702F7
:1026E00090915802E822F922E0925702F0925802A3
:1026F00080915C048115B1F00E94310900915E0463
:1027000010915F042091600430916104DC01CB01E1
:10271000801B910BA20BB30B8F3F9F4FAF4FBF4757
:1027200008F4ABDD6296E0E10C94832B833049F032
:1027300088EC92E0F9CE8DED92E0F6CE86ED92E057
:10274000F3CE8FEC92E0F0CE80EB92E0F8CE20E278
:10275000129FC0011124880F492F441F550B51951A
:10276000242F912F9295990F9076392F315E842FD7
:1027700034CF455A5D4F04E610E020E230E0A6CFAA
:10278000A0E1B0E0E6ECF3E10C94672BFE0131969A
:10279000DF0180E11D928A95E9F70AE310E09FE6E8
:1027A000A92EB12C21E9422E23E0522E612C712C4E
:1027B0009E2E8F2E6201730181E14816510461043F
:1027C00071041CF080E1C82ED12CA601B501892D21
:1027D000982D0E94B02EAC0CBD1C0D2C000C0008D6
:1027E0004C185D08600870080150104019F7609699
:1027F000E0E10C94832B6FEF85E290E00E94BF2E06
:102800006FEF86E290E00E94BF2E6FEF87E290E0CC
:102810000E94BF2E60E088E290E00E94BF2E2BD87D
:10282000AFDF66E285E290E00E94BF2E67E086E2BD
:1028300090E00E94BF2E61E287E290E00C94BF2EF0
:102840001F921FB61F9211248F939F93AF93BF9334
:1028500080916504811113C080910B0290910C024C
:10286000A0910D02B0910E024196A11DB11D809361
:102870000B0290930C02A0930D02B0930E02BF9135
:10288000AF919F918F911F901FBE1F9018952FB7EA
:10289000F89480910B0290910C02A0910D02B091DE
:1028A0000E022FBF0895CF93DF93EC01F0DF8C1B56
:1028B0009D0BDF91CF9108950F931F93CF93AAE5BE
:1028C000B1E031E0C0E02D912F3F11F480E010C065
:1028D000E22FE295EF70E05EF0E0808190E02F70F3
:1028E00002C0959587952A95E2F780FDEFCF832F5B
:1028F000C82B330F81E0AD35B80729F780918004EC
:102900008C1315C080917E048115D9F000917C0450
:1029100010917D04BCDF801B910B059790F0809196
:102920007F04C813C0937F0410927E040AC0C09332
:10293000800481E080937E04AADF80937C049093DE
:102940007D04CF911F910F910895A1DF9C0190917B
:10295000B8048091B904982B21F020937804309327
:1029600079049091BA048091BB04982B21F02093B4
:1029700076043093770486EB94E00C944508611557
:1029800009F459C0E82FED5CE33150F4F0E0E25077
:10299000F14D0C94BB2B0E94F10781958093B904F3
:1029A000D4CF0E94F107FACF0E94F107819580935E
:1029B000B804F6CF0E94F107FACF0E941108809365
:1029C000BA04EECF0E9411088195F9CF0E94110838
:1029D00081958093BB04E4CF0E941108FACF482F61
:1029E000415D550B21E001C0220F4A95EAF7909115
:1029F000B704922B9093B7044091BD04815D21E010
:102A000001C0220F8A95EAF7822F611509F48AC066
:102A1000422B4093BD040C94830C8091B5048160DB
:102A20008093B504BDCF8091B5048260F9CF8091C9
:102A3000B5048460F5CF9091B804482F50E08D3CE8
:102A400059F42091B90427FF0DC01092B9049111D7
:102A50000BC01092B40408C08E3CA9F42091B904B4
:102A600012169CF39115A9F09091BA042091BB0421
:102A7000922B11F41092B304415D51094830510575
:102A800008F4BACF8DCF8F3C39F497FFEBCF10927B
:102A9000B8049091B904DBCF803D19F41916BCF34A
:102AA000E1CF2091BA04893D29F41216DCF6109288
:102AB000BA04D8CF8A3D19F427FFD4CFF8CF20919C
:102AC000BB048B3D29F427FFCDCF1092BB04CACFA6
:102AD0008C3D19F41216CCF3C5CF282F215D283078
:102AE00070F4FA01E15D21E001C0220FEA95EAF7F6
:102AF00020953091B70423232093B704B3CF2091BE
:102B0000B5042E7F8D3D59F02091B5042D7F8E3D6B
:102B100031F08F3D09F0A6CF2091B5042B7F209393
:102B2000B504A0CF8095482374CFCF93C82F8115CB
:102B3000D1F08450813A90F580911501813021F4D3
:102B40008091CA0487FD11C0E2EDF1E08081C817D1
:102B5000F9F0319681E0E83DF807C1F78C2F0E942B
:102B6000A5080E94A90CCF910895EC2FE695E69553
:102B7000E695F0E0E852FE4F828190E04C2F4770DE
:102B800021E001C0220F4A95EAF78223892B31F315
:102B90008C2F0E94D9080E94A90CE0CF8C2F805E58
:102BA000883060F4C77081E001C0880FCA95EAF7E9
:102BB000C091C404C82BC093C404D3CF8C2F855AB2
:102BC000833030F48C2F8452990B0E945708CBCF5E
:102BD000EC2FE85AEB3150F4F0E0EE0FFF1FED560A
:102BE000FE4F808191810E947E08BDCF8C2F8D5C2D
:102BF000833108F0B8CF61E08C2FC1DEB4CF8115EE
:102C000069F1982F9450913A20F40E94D9080C94BD
:102C1000A90C982F905E983058F4982F81E091FD80
:102C200084E090FD880F92FD82950E94DE05EFCF33
:102C3000982F955A933020F480E090E00C94570838
:102C4000982F985A9B3120F480E090E00C947E08F5
:102C5000982F9D5C933110F460E091CE08951F93FE
:102C6000CF93DF93182FEB0160DF209731F4812F92
:102C7000C6DFDF91CF911F9108958FE99FE0019703
:102C8000F1F700C000002197F0CF1092C4048091AA
:102C90001501813019F58091CA0487FF1FC0EAED44
:102CA000F1E08EE111928A95E9F780E090E00E94D0
:102CB000570880E090E00E947E081092CC040E94A9
:102CC000A90CE6EBF4E086E011928A95E9F7109200
:102CD000B4041092B3041092B50437CEE2EDF1E0E3
:102CE00086E0E0CFD2DF88E19AE00FB6F894A895AD
:102CF000809360000FBE90936000FFCFAAE2B0E027
:102D0000E4E8F6E10C94742B8BEF91E0FC01019662
:102D10002091F100208322E083309207B9F780915F
:102D2000FC01893009F459C0C8F4823009F4B7C0F5
:102D3000833009F486C0813089F18091E80083FFF7
:102D4000EBC08091FB019091FC019A3008F0E4C047
:102D5000E92FF0E0EF5EF04D0C94BB2B8A3009F4C4
:102D60008DC08B3051F78091FB01813231F780911A
:102D7000FF0190910002892B01F78091E800877F85
:102D80008093E8000E94DB0981E09091FD019111A0
:102D900001C080E08093150178DFCFCF8091FB01E7
:102DA000813A59F68091E800877F8093E80080910E
:102DB000FF0190910002892B61F060E080E090E0DB
:102DC00070E00E944E098091E8008B778093E800C4
:102DD000B4CF68E083E092E0F3CF8091FB018132D1
:102DE00009F0ABCF8091FF01909100028D7F892B7C
:102DF00009F0A3CF8091E800877F8093E80080915D
:102E0000E80082FF19C02091F3008091F200922F18
:102E1000029731F48091F100813011F0863021F475
:102E20008091F100809314018091E8008B7780936A
:102E3000E8000E94DB0981CF80917B048111DFCF04
:102E40007CCF8091FB01813A09F077CF8091FF011F
:102E500090910002892B09F070CF8091E800877F64
:102E60008093E8008091E80080FFFCCF80911501FD
:102E70008093F1008091E8008E77D9CF8091FB019B
:102E8000813209F05ACF8091E800877F8093E80073
:102E90000E94DB098091FE01809313014ECF809147
:102EA000FB01813A09F049CF8091E800877F809348
:102EB000E8008091E80080FFFCCF80911301D8CF1B
:102EC000803889F0823841F58091FF018F7087301A
:102ED00018F58093E9008091EB0085FB882780F945
:102EE0001092E90006C080916604880F9091F80165
:102EF000892B9091E800977F9093E8008093F100F0
:102F00001092F1008091E8008E7723C0811116C0E5
:102F10008091FD01813011F18091E80083FF0AC0AA
:102F20008091E800877F8093E8008091EB008062C9
:102F30008093EB00AA96E3E00C94902B823061F72B
:102F40008091FD01811581F01092E9008091E800E7
:102F5000877F8093E8000E94DB09DECF933009F081
:102F600080E080936604F0CF8091FF018F70282F5E
:102F70002150263088F68093E9002091EB0020FF55
:102F8000E3CF933031F48091EB0080628093EB00CB
:102F9000DBCF9091EB0090619093EB0021E001C0BA
:102FA000220F8A95EAF72093EA001092EA008091B6
:102FB000EB008860EBCF8111AFCF8091FD018F775F
:102FC000182F8091E3008078812B8093E30080911B
:102FD000E800877F8093E8000E94DB098091E80089
:102FE00080FFFCCF8091E30080688093E30083E062
:102FF000111101C082E080937B048ECF8058823013
:1030000008F08ACF8091FD019091FE018C3D23E074
:10301000920791F583E08A838AE289834FB7F89417
:10302000DE01139620E03EE051E2E32FF0E0509302
:103030005700849120FF03C082958F703F5F8F708F
:103040008A30C0F0895C8D931D922F5F243169F71F
:103050004FBF8091E800877F8093E8006AE270E0CC
:10306000CE0101960E944E098091E8008B778093F3
:10307000E80052CF805DE7CF292F30E023303105C3
:1030800009F44DC078F52130310509F47CC08BE599
:1030900090E0E8ECF1E02230310509F03DCF2091DD
:1030A000E800277F2093E80020910102309102027E
:1030B0008217930708F49C0140E02115310509F0BF
:1030C00067C0411165C08091E80082FDCDCF80913D
:1030D0007B04811549F2853039F28091E80083FF45
:1030E000F2CFC2CF8091FF019091000221323105D1
:1030F000D9F12232310509F00FCF8330910508F064
:103100000BCFFC01EE0FFF1FE25EFE4F0190F0813E
:10311000E02D855E9E4FDC018C9190E011C0282F40
:1031200030E0813089F022303105B1F0232B09F0F5
:10313000F3CEE7E6F2E0E4918E2F90E0E7E6F2E0EE
:10314000009709F4E9CEABCFE9E5F2E0E4918E2FE8
:1031500090E0E9E5F2E0F4CFE5E3F2E0E4918E2FD0
:1031600090E0E5E3F2E0ECCF8330910508F0D4CEB7
:10317000880F991FFC01EC5DFE4F0190F081E02D5E
:1031800089E090E08CCF82E190E0E3E2F2E087CF4B
:1031900080917B04811509F467CF853009F464CFF1
:1031A0008091E80083FD60CF8091E80082FD8BCFA5
:1031B0008091E80080FF81CF4091F3008091F20080
:1031C000942F2115310519F08830910550F041E018
:1031D000089709F040E08091E8008E778093E8003E
:1031E0006CCF44914093F100319621503109019602
:1031F000E8CF803809F090CE8091E800877F8093F7
:10320000E8008091F9018093F1007CCE811184CE99
:103210008091FD01182F823008F07ECE8091E80069
:10322000877F8093E8001093F9010E94DB09111554
:10323000F9F084E080937B0442E061EC81E00E943D
:10324000AB0942E261EC84E00E94AB0942E261EC2E
:1032500082E00E94AB0942E260EC83E00E94AB098D
:1032600080917B04843051F482E08093160154CE27
:103270008091E30087FDDDCF81E0DCCF81E0F5CFF9
:10328000FF920F931F93CF93DF93C62FD42FF22E6D
:103290008115A9F06093C204FADA80931302909327
:1032A000140281E0C1FD84E0C0FD880FC2FD82955B
:1032B0000E94FD0CCDB7DEB7E5E00C948E2B80911B
:1032C000C204681332C00091130210911402DFDAB5
:1032D000801B910B883C910540F51D2F105ECD178A
:1032E000A1F0C77001E0802F01C0880FCA95EAF7EE
:1032F0000E94060D183048F48D2F877001C0000F12
:103300008A95EAF7802F0E94FD0C60E070E08F2D17
:10331000A6DC81E0D1FD84E0D0FD880FD2FD82954E
:10332000183040F60E94060DC5CF81E0C1FD84E053
:10333000C0FD880FC2FD8295F5CFA4E0B0E0E3EABE
:10334000F9E10C946A2B7C01FC018481811509F45C
:1033500001C161E0C7010E94A60D8C0101158EE735
:10336000180709F05EC0F70185818115E9F08091A9
:103370000E058F5F817080930E0540910E05509170
:103380000F0560911005709111058FE090E00E948B
:10339000D12EE0910E05F0E0EE0FFF1FE753FE4F38
:1033A000808191810E94F30AF7018581811509F4DA
:1033B00033C1980137572038310508F0E2C4003195
:1033C00008F0B9C060E973E080E090E00E94F80D79
:1033D0008111B1C0A12CB12C4501011178C08982A5
:1033E0009A82AB82BC828E010F5F1F4FC8010E9480
:1033F000050EB02EA12E813008F49DC009F0C6C084
:10340000C8010E94050E813009F075C0C8010E94F4
:10341000050E60E570E0893311F060E070E01FDCBC
:10342000E5CF01308EE71807E1F4F70185818115BA
:1034300009F4BACF80910F0590E0019663E070E047
:103440000E94512B80930F0540910E0550910F055E
:1034500060911005709111058FE090E00E94D12ECF
:10346000A3CF02308EE7180709F051C4F701858118
:10347000811509F499CF8091100590E0019669E0DB
:1034800070E00E94512B80931005DECFF7018581FB
:10349000811509F489CF8091100590E00896EFCF4F
:1034A000F7018581811509F47FCF80911105819500
:1034B00080931105C9CFF7018581811509F474CF77
:1034C0008091120591E08927809312056DCF81E9E3
:1034D000881683E09806A104B10469F1B401C5011E
:1034E0000E94F80D9FEF891A990AA90AB90A811159
:1034F000EECF015072CF823029F4C8010E94050E30
:1035000014DB74CF833029F4C8010E94050E77DBE9
:103510006DCF843071F4C8010E94050EC12CD12CEE
:10352000282F2053330B2A303105C0F0C114D104A9
:1035300019F581115BCF8091C904877059F0F701AB
:103540008581811539F08091CB0482FF03C082E030
:103550000E94A1052496EDE00C94862B4AE04C9D38
:10356000C0014D9D900D1124280F391F69018B2D2D
:103570009A2D0E94050ED4CFEFE9FFE03197F1F7C5
:1035800000C0000091E0C91AD108D0CFE82FF0E0C8
:10359000E857F74F9491792E282F26952695269552
:1035A00030E0F901E858F74FC4908770D12C082E0D
:1035B00002C0D594C7940A94E2F7F901E859F74F8D
:1035C000A490B12C082E02C0B594A7940A94E2F7F7
:1035D000285A374FF9018490912C02C09594879412
:1035E0008A95E2F7C0FE02C081EE9FDAA0FE02C01B
:1035F00086EE9BDA60E070E0872D31DBA0FE02C032
:1036000086EEFDDAC0FE02C081EEF9DA80FEEECE73
:1036100060E070E08CE203CFF801E851FC47E7304E
:10362000F10508F089C3E55EF04D0C94BB2B26E252
:1036300041EE61EE25DE7FCF27E245EE65EEFACF63
:1036400026E241EE60EEF6CF27E245EE64EEF2CFE1
:1036500026E241EE62EEEECF27E245EE66EEEACFDD
:1036600028E241E0EBCF8091CA0481608093CA04D4
:103670006091CA047091CB0484E090E00E94D92E3E
:1036800004DB59CF8091CB0488608093CB04F0CFCA
:103690008091CA048260EACF8091CA048460E6CF38
:1036A0008091CA048860E2CF8091CB048160EDCF25
:1036B0008091CB048260E9CF8091CA048061D6CF2B
:1036C0008091CA048062D2CF8091CA048064CECF38
:1036D000DCDA8091CA048068C9CF8091CA048C600A
:1036E000C5CF8091CB048360D0CF8091CA048E7FF8
:1036F000BDCF8091CB04877FC8CF8091CA048D7FD6
:10370000B5CF8091CA048B7FB1CF8091CA04877FE7
:10371000ADCF8091CB048E7FB8CF8091CB048D7FCD
:10372000B4CF8091CA048F7EA1CF8091CA048F7DCF
:103730009DCF8091CA048F7B99CFA7DA8091CA046C
:103740008F7794CF8091CA04837F90CF8091CB04F0
:103750008C7F9BCF9091CA04892F8B7F92FF8460CE
:10376000877F92FF886082CF8091CB04982F9095BD
:1037700090FB80F990FB81F988CF9091CA04892F42
:103780008F7B96FF806472CF80DA9091CA04892F74
:1037900097FB87F980586ACF61E08EE090E00E9445
:1037A000BF2E66CF60E0F9CF9091CA04892F8F7E3B
:1037B00094FF80615BCF9091CA04892F8E7F90FF28
:1037C000816054CF9091CB04892F877F93FF8860CD
:1037D0005CCF89E2D1C289E2BAC207379CE71907F8
:1037E000F1F008379CE7190749F19801205E32454E
:1037F0002032310548F5811139C00F7181E090E028
:1038000002C0880F991F0A95E2F78C01682F83E0A8
:1038100090E00E94BF2E802F0E94C4048CCE8115A0
:1038200049F081E00E94CB0443E062E081E00E9425
:103830005A0581CE81E00E94D404F6CF811511F0A3
:1038400082E0F0CF82E0F7CF811571F10B359CE774
:10385000190709F10C359CE7190791F00A359CE727
:103860001907B9F001309CE71907E9F003309CE72C
:10387000190799F001151C47B9F407DA0E943D09B0
:103880008091CB04002482FF0394802D0E94D90BE9
:1038900052CE81E0FBCF80E0F9CF6FEF7FEF80E089
:1038A00090E00E94D92E1EDAF70100811181811566
:1038B00009F447C0C8010E94790DD82E682FC801AD
:1038C0000E943405B8018D2D0E945E0D0E94DA061B
:1038D000182FA92EF701C580D680D2948FE0D82268
:1038E0008091C904877001F1BC2CC114F1F0892FBB
:1038F000807F803461F0812F805E8830A8F0892F2E
:10390000807E803221F4123078F0D11469F08091F9
:10391000CB0482FF09C082E00E94A1058091C90406
:103920008770BB24B3948111B12CEA2DE295EF701E
:103930008A2D803C08F067C0F0E0EE5DF04D0C94FD
:10394000BB2BC8010E944705D82EBCCF0A2D0F7093
:10395000803110F00295007FC114B9F0011569F0B3
:10396000812F805E883010F0111109C08091C4044D
:10397000802B8093C4040E94A90C812F3EC08091AB
:10398000CC04802B8093CC04F6CF812F38D901153D
:10399000D1F1812F805E883010F0111104C0802F8A
:1039A0000E94DE0506C000958091CC0480238093A0
:1039B000CC040E94A90C27C00A2D0F70807F803292
:1039C00011F00295007F113040F009F463C0C1147A
:1039D00009F46EC0D11499F1D0CF8091CB0482FD4F
:1039E0002AC0C11461F0011539F08091C404802B04
:1039F0008093C4040E94A90C80E097D804C080E0A2
:103A0000FED80111CCCFB11409F4B0C08091C90423
:103A100080FDACC0F70115828695869586950E943B
:103A2000CB04C7018ADC8091C9048695869586956A
:103A30000E94D4049BC0C11499F0D11004C0802FFF
:103A40000E94FD0CE0CF8D2D8130E9F68091C504F8
:103A5000902F98230917B9F2802B8093C504D3CFF8
:103A6000D110D1CF802F0E94060D9091C504802FD8
:103A7000892329F0802F809589238093C504809124
:103A8000C604902F982309F4BECF00950823009315
:103A9000C604B9CF8D2DC11421F0863008F0B3CF04
:103AA000CECF853008F0AFCF802F0E94060DABCF70
:103AB000D114D1F3193349F48FEF97EE23E08150FD
:103AC00090402040E1F700C00000812F98D89BCFA4
:103AD000869586958370813060F009F094CF812FB0
:103AE0009A2D9370C11002C080E090E00E947E0881
:103AF0008ACF812F9A2D9370C11002C080E090E090
:103B00000E94570880CF6C2D812F0E94BF147BCF5D
:103B10008370E1F5C11028C0812F8295869587704A
:103B2000880F880F412F4F70082E01C0440F0A9450
:103B3000EAF7212F207114FF06C02FE001C0220FE9
:103B40008A95EAF720958A2D869586958370982F19
:103B50008230A1F08330B9F08091C704913059F0E0
:103B6000242B82230E94C4040E94360860E0C7010F
:103B70000E94A60DEFCC842B822BF4CF242B8091B6
:103B8000C7048227EFCF822F842BECCFC11459F1C9
:103B9000A0FEEACF812F829586958770880F880FC7
:103BA000412F4F70082E01C0440F0A94EAF7212FCD
:103BB000207114FF06C02FE001C0220F8A95EAF79A
:103BC00020958A2D869586958370982F823091F066
:103BD0008330A9F08091C804913049F0242B8223CE
:103BE0000E94C704C1CF823008F4BECFD3CF842B4C
:103BF000822BF6CF242B8091C8048227F1CF822F0D
:103C0000842BEECF8F70082FC11431F00E94CB04AB
:103C1000812F0E94FD0CA8CF812F0E94060D802FBE
:103C20000E94D404A1CF123F81F170F4103FC9F07B
:103C3000113F91F0C11409F456C0D11409F450C0D9
:103C4000812F0E94951590CF133F29F1143F91F7D2
:103C50009091CB0492FD2CC08A2D8F71C11401F379
:103C600017C08D2DC11479F0853008F07DCF8A2DD5
:103C70008F71282F81E001C0880F2A95EAF7909173
:103C8000C8048927ADCF8630F0CF8F71C110C8CF5F
:103C90000E94CB0469CF80E0C11409F4A1CF8A2D22
:103CA0008F71982F81E001C0880F9A95EAF798CF1D
:103CB000C11459F08F7192FFEBCF982F990F990F84
:103CC000990F93609093C904E3CF81E00E94A1050E
:103CD0008D2D823008F448CF82E00E94A10544CFA8
:103CE0008A2D8F71D5CFD11479F0193349F48FEF24
:103CF00097EE23E0815090402040E1F700C00000A3
:103D0000812F0E94FF1530CF8A2D8F7189CF03300C
:103D10008EE7180709F4BACB06308EE7180709F4C6
:103D2000BFCB05308EE7180709F4C5CB04308EE70A
:103D3000180709F4C5CB38CB06319CE7190709F001
:103D40004CCD8091C304811509F445CD85E30E94D3
:103D5000D90814C006319CE7190709F03ECD8091BF
:103D6000C4048A7A91E0811101C090E09093C30469
:103D7000811509F42ECD85E30E94A5080E94A90CA7
:103D8000DACBF801E851FC47E730F10508F44BCCF9
:103D90001092C2049801305723323105D8F684E0DE
:103DA00090E00E94AB2E8093CA049093CB04F8015C
:103DB000E150F047E232F10508F055CCE25DF04DFC
:103DC0000C94BB2B80910D05803170F480910C0513
:103DD000811551F0E091CE042091CD043091080579
:103DE000409107052E1301C00895BF0187E0E89FA9
:103DF000F0011124DF01A153BB4F14968C9114974D
:103E0000811551F111968C911197831325C08C91D6
:103E1000841322C015968C91159781111DC012969E
:103E20008D919D91A0910905B0910A058A1B9B0B6C
:103E3000883C910588F480910D058F708061809396
:103E40000D05EB52FB4F80818F708061808387E08E
:103E500095E073DA0C9497056F5F7F4FFB01E77075
:103E6000C1CFADE0B0E0E7E3FFE10C946A2B8C0139
:103E700086E0F801DE01189601900D928A95E1F72F
:103E8000F801F580848197E0892E95E0992E709055
:103E90000B05711017C0811591F0F11409F40EC1D2
:103EA000C8010E94CD0D811509F408C187E0F80111
:103EB000A7E0B5E001900D928A95E1F783DFFF243A
:103EC000F39455C0D080A280B380C0900C0520919F
:103ED000090530910A05A501421B530BC11409F4D1
:103EE000BDC0483C510508F076C0811541F3809172
:103EF00008059180E0900D059E2D903108F057C087
:103F0000981214C0809107058D1110C0F11049C09E
:103F10008E2D8F70806180930D0587E095E00DDA1E
:103F200080910D05F8018683F12C21C0F11039C074
:103F300040E0692D8D2D0E94780540E0692D8D2D82
:103F40000E947805F82E8111EFCF888599850E940F
:103F5000C30D292F22952F70903470F49F7022305A
:103F600098F09115A9F0F8019681903188F48F2D81
:103F70002D96EDE00C94862B2A5F2F70223060F096
:103F8000C801DBD9FC2CF3CF911511F0811579F321
:103F9000805E883060F3F4CF803F48F3815F8330E8
:103FA000F9CF80910D05816080930D05BDCF9812EA
:103FB00037C0809107058D1133C0F11031C0E68202
:103FC000C801BBD987E0F801A7E0B5E001900D92E8
:103FD0008A95E1F774CFE0900D059E2D903148F45D
:103FE00087E095E0AAD9F40187E011928A95E9F774
:103FF0009BCF811509F463CF9091080581819813B7
:104000000FC0809107058D110BC0F11009C0E68229
:10401000C80193D9F40187E011928A95E9F74FCF4F
:10402000C8010E94CD0D811509F448C0F11409F4AE
:1040300045C08E2D803208F439CF809107059091CC
:10404000080589839A83AB82BC827D821E8280911F
:104050000D058F83CE01019670D928CF483C5105BC
:1040600008F0C1CF811509F42ACFF11439F19091EC
:1040700008058181981318C0809107058D1114C01F
:1040800080910D0580FD9ECF803108F49BCF868303
:10409000807F803F09F494CF8681982F907F905F36
:1040A0008F70892B86838CCFC8010E94CD0D811122
:1040B000FDCE80910D05816080930D05C8013DD92D
:1040C000FECEABE1B0E0E7E6F0E20C94732B4E8B52
:1040D0005F8B688F798F8A8F192F9B8F9111109228
:1040E000CC041D8A86E0FE017696DE011F960190C3
:1040F0000D928A95E1F70A8D011561F00B8B1C8BEF
:1041000061E0CE010F960E94A60D61E0CE010F96F0
:104110000E94A60D0B8B1C8B87E0FE013F96DE01F3
:10412000189601900D928A95E1F7CE01089699DED6
:1041300081112EC02091CD043091CE0487E0AE01D4
:10414000485F5F4FFA0147505109DA0101900D9223
:104150008A95E1F78C858115D9F0822F90E08395BF
:10416000877090E0AC0134171506E1F097E0929F5C
:10417000D0011124A153BB4F9E012F5F3F4FF90186
:1041800001900D929A95E1F74093CD040E94970516
:104190008091CE049091CD04891311C06B96E4E018
:1041A0000C948F2B0E9445161092CD041092CE04D1
:1041B000E7E0F5E087E011928A95E9F7E9CF27E09B
:1041C000829FC001112481539B4F4BDE811531F337
:1041D0008091CE049091CF04019687708093CE0495
:1041E000D7CFA6E0B0E0E7EFF0E20C94732B0E948B
:1041F00047148C018091810490918204801791076B
:1042000071F019821A820E944714BC0149815A81B7
:1042100080E090E056DF009381041093820426969C
:10422000E4E00C948F2BCDB7DEB7AC970FB6F894C3
:10423000DEBF0FBECDBF85B7806885BF85B78068FC
:1042400085BF84B7877F84BF0FB6F894A895809107
:104250006000886180936000109260000FBE80E86B
:1042600090E00FB6F89480936100909361000FBEC8
:1042700081E08093160186EC97E08093CE019093C5
:10428000CF010E947A0A0E942B0A8091E20084608A
:104290008093E200789480917B04811599F080915D
:1042A000E9001091EC008F7010FB112717F9182B03
:1042B0001092E9008091E80083FD0E947E161F7035
:1042C0001093E90082E084BD93E095BD9AEF97BD1D
:1042D00080936E000E94230E811102C00E94FB1386
:1042E000EDE6F4E088E011928A95E9F781E08093A9
:1042F0006C0460E080E00E94C80761E080E00E94FA
:10430000C8078FE891E00197F1F700C0000010E0C6
:1043100080916C04181708F46BC0AAE5B1E041E085
:104320008D918F3F09F076C081E0AD35B807C1F7B8
:1043300010927F04109280048FE090E00E94A62EDD
:1043400060930E0570930F058093100590931105EF
:10435000633010F00E94D60A80E090E00E94AB2EFD
:10436000833E9E4F21F40E94230E81111DC063EEF7
:104370007EEF80E090E00E94D92E60E082E090E045
:104380000E94BF2E81E08093C70461E083E090E04B
:104390000E94BF2E60E074E184E090E00E94D92E7C
:1043A0000E94FB130E94D60A82E090E00E949E2E9B
:1043B0008093680484E090E00E94AB2E8093CA044E
:1043C0009093CB040E945C148FE39CE90197F1F772
:1043D00000C000000E945C1480917F0480FF2EC00A
:1043E0006FEF7FEF80E090E00E94D92E0E943D09A0
:1043F00060E0812F0E94D807082F61E0812F0E9482
:10440000D807E12FF0E0E559FB4F880F802B808320
:104410001F5F7ECFE82FE295EF70F0E021A18F7053
:10442000642F01C0660F8A95EAF7962F9095922324
:1044300091A392A1862F892B82A376CF83E090E06F
:104440000E949E2E0E94C4048091C8040E94B4045D
:1044500082E08093630480E880936204DCD56BE0A3
:1044600070E08DE498E00E940E118115E9F18091D1
:10447000630465E070E081FD7FC088E498E00E94FD
:104480000E11811589F16DE070E086E398E00E94DD
:104490000E11811549F10E943109DC01CB01805ACE
:1044A0009541AF4FBF4F80935E0490935F04A093FC
:1044B0006004B0936104EBE5F2E0DF0180E092E09C
:1044C0001D920197E9F7E0935902F0935A028FEF9A
:1044D0009FEF809357029093580281E080935D0490
:1044E00080935C0410925B040E944C0B811147C0C6
:1044F00081E080936404E0910E05F0E0EE0FFF1F71
:10450000E753FE4F808191810E94F30A60E982E2C5
:104510000E94CC0A87E091E08093A3049093A404C6
:1045200001E010E47E018FEFE81AF80A80917B0425
:10453000853041F480917B04853019F10E94451645
:104540000E9436080E945C148090690470907F0479
:10455000781068C046DEB12C80917504811551F049
:1045600080916F04109275048093700480916D04A3
:1045700080936E04C12CE5C083E498E080CF83E093
:10458000B8CF80917B04843039F10E943D110E94A4
:104590003A0E1092650488E190E00FB6F894A89561
:1045A000809360000FBE1093600083B7817F8460AA
:1045B00083BF83B7816083BF7894889583B78E7FEC
:1045C00083BF0FB6F894A8958091600088618093AE
:1045D0006000109260000FBE0E945C1480917F0406
:1045E00080936704811509F4A5CF80916604811535
:1045F00009F4A0CF80E189BD82E189BD09B400FE44
:10460000FDCF8091D8008F7D8093D8008091E0000D
:1046100082608093E0008091E00081FDFCCF0E94E9
:10462000451688CF8724C12CD12C99249394892DA9
:10463000882179F4990C8FEFC81AD80A83E0C8163C
:10464000D104A9F7709269040E943109BB24B39484
:1046500083CF692C672061E0A62E0C2C01C0AA0C28
:104660000A94EAF78091670490E08A21892B49F047
:104670006110E0CFA09480916704A822A092670403
:10468000D9CFC9821A820E9447148B839C830D83E1
:1046900091E0611001C090E09E8349815A816B8155
:1046A0007C818D810EDDE4CFA0907004D0906F04EA
:1046B00061E08C2D0E94D807982E60E08C2D0E941E
:1046C000D807990C89292C2D30E0D901A559BB4F69
:1046D000EC919E2F9370891799F1EE0FEE0FE82B56
:1046E000EC93EF70F0E0E65BFE4F26593B4F808184
:1046F000F9019081890F84300CF44EC04D2D50E0AB
:10470000BA016395637070E0A616170681F04359ED
:104710005B4F9C2D9F77FA0194839D2D9F5F937033
:1047200090936F0490916D049F5F90936D04982F08
:10473000990F990B64E070E00E94A82BF901808327
:10474000C39480916C04C81608F4AECFD12C4CEF02
:10475000A42E5DEF952E8091700490916F049817B0
:1047600009F450C0E82FF0E0EF58FB4FC080DC2C7C
:10477000E894D7F88F5F83708093700480916E0403
:104780008F5F80936E04C7FC18C0D9A2AAA20E94B2
:10479000471423E0822E17C08D3F4CF64D2D50E07C
:1047A000BA016395637070E0A616170609F4BFCFCF
:1047B00043595B4F9C2D9068AECFD9A29AA20E941C
:1047C000471432E0832EBC018BA39CA38DA20EA3C1
:1047D00049A15AA1882D91E074DCDFA2C7FE10C068
:1047E00098A60E944714BC0189A79AA78BA61CA66D
:1047F0004FA158A5882D90E064DCDD24D394ABCF85
:10480000A8A6EFCFD11419F00E943109BD2C0E9447
:104810003A0E811539F00E9431090E9418120E9447
:104820001B1104C00E941812B110F9CF86E0E6EB0C
:10483000F4E0D70101900D928A95E1F71092B80447
:104840001092B9041092BA041092BB048B819C811F
:10485000892B09F443C0C0907804D09079040E9459
:1048600047148C199D099C019091B404911509F489
:104870002DC22531310590F19F3F19F09F5F909334
:10488000B404DB80D11459F00E94F10791E01D14AB
:104890000CF09FEF899F802D11248093B804DC8059
:1048A000D11459F00E94F10791E01D140CF09FEF14
:1048B000899F802D11248093B9048091B8048115BB
:1048C00069F0D090B904D11449F00E94E3078093B5
:1048D000B8048D2D0E94E3078093B9048D819E81D9
:1048E000892B09F443C0C0907604D09077040E94CD
:1048F00047148C199D099C019091B304911509F4FA
:10490000E0C12135310590F19F3F19F09F5F9093F1
:10491000B304DD80D11459F00E94110891E01D14F8
:104920000CF09FEF899F802D11248093BA04DE80C4
:10493000D11459F00E94110891E01D140CF09FEF62
:10494000899F802D11248093BB048091BA04811526
:1049500069F0D090BB04D11449F00E94E307809322
:10496000BA048D2D0E94E3078093BB04B70186EB48
:1049700094E00E94010981110CC08091B8049091CB
:10498000B904892B9091BA04892B9091BB04892B8F
:1049900011F00E94A51486E0F701A6EBB4E00190A7
:1049A0000D928A95E1F70E94360890917A04891752
:1049B00021F080937A040E94310980917B04843035
:1049C00009F0B4CD83E08093E9008091E80082FF94
:1049D000ADCD8091E80090E085FF05C00E94FA0906
:1049E000811589F091E08091E8008B778093E80051
:1049F000911509F49BCDE981E150E53170F5F0E0C6
:104A0000E05BF04DB8C680E2A82EB12C6701809122
:104A1000E80085FD0AC08091E8008B778093E8006C
:104A20000E94FA09811599F3DDCF8091F100F6011A
:104A3000808381E0A81AB108A9F28FEFC81AD80ABA
:104A4000E6CF1A828DE08B8324C08A81833091F176
:104A500038F48130B9F0823061F08FEF898319C06A
:104A6000843069F18630C9F71B821C821D8288E080
:104A700007C088E290E00E949E2E1B821C821D824D
:104A80008E8307C00E9431097CD66B837C838D8323
:104A90009E83E091A304F091A404309709F446CDDD
:104AA0000284F385E02D309709F440CD60E2C70120
:104AB00009953CCD8B818111ECCF1C82EACF1B8202
:104AC0001C821D821E82E5CF8A81823019F08530DA
:104AD00001F3C3CF6B817C818D819E8152D688E2A8
:104AE00090E00E94BF2ED5CF4C816B818A810E94BD
:104AF0000B0D9827892798278D839E83CACF2D81F8
:104B00003E813227232732274C816B818A810E9484
:104B1000EF0BBFCF0E943B0CBCCF80E18A83B9CFA3
:104B200083E08A8381E98FCF4A805B8054244524C7
:104B30005424612C712C57018C816701C80ED11C43
:104B4000AC14BD0409F4A5CF81E9481683E05806EA
:104B50006104710480F4C20181599F4F0E949E2E0E
:104B6000F50184838FEFA81AB80A8FEF481A580A04
:104B7000680A780AE5CF80E0F3CF3C808A809B808A
:104B8000982489249824A12CB12C67012501320195
:104B9000431451046104710408F07BCF81E9881645
:104BA00083E09806A104B10438F4F6016481C401DD
:104BB00081599F4F0E94BF2E8FEF481A580A680AEA
:104BC000780A8FEF881A980AA80AB80A8FEFC81ACD
:104BD000D80ADECF0E94C0135CCF87E09FCF3C8015
:104BE0008A809B80982489249824A12CB12C2501AB
:104BF00032016E0185E0C80ED11C431451046104DA
:104C0000710408F046CF8AE288169104A104B10429
:104C100090F4C40189960E949E2EF60181936F0143
:104C20008FEF481A580A680A780A8FEF881A980A8C
:104C3000A80AB80AE2CF80E0F0CF3C808A809B804F
:104C4000982489249824A12CB12C670125013201D4
:104C5000431451046104710408F01BCF8AE28816E2
:104C60009104A104B10430F4F6016481C401899671
:104C70000E94BF2E8FEF481A580A680A780A8FEFF1
:104C8000881A980AA80AB80A8FEFC81AD80AE0CF7B
:104C900041E08C81811101C040E06B818A810E94DA
:104CA000300D27CF2D813E8132272327322741E047
:104CB0008C81811101C040E06B818A810E94100CBF
:104CC000E8CE2B30310508F021CE50CE2B30310507
:104CD00008F0D4CD03CE78941F921FB61F921124F2
:104CE0008F939F93AF93BF9380910B0290910C028F
:104CF000A0910D02B0910E020196A11DB11D8093ED
:104D00000B0290930C02A0930D02B0930E02BF9180
:104D1000AF919F918F911F901FBE1F9018951F926A
:104D20000F920FB60F9211242F933F934F935F93DF
:104D30006F937F938F939F93AF93BF93EF93FF9363
:104D40008091E10082FF09C08091E20082FF05C0EE
:104D50008091E1008B7F8093E1008091DA0080FFF9
:104D600024C08091D80080FF20C08091DA008E7F1F
:104D70008093DA008091D90080FFA9C080E189BDCD
:104D800082E189BD09B400FEFDCF81E080937B0400
:104D90008091FA01811109C00E947A0A0E942B0AAF
:104DA0008091E20084608093E2008091E10080FFC6
:104DB0001AC08091E20080FF16C08091E2008E7FD1
:104DC0008093E2008091E20080618093E200809114
:104DD000D80080628093D80019BC85E080937B0462
:104DE00083E0809316018091E10084FF2FC08091C1
:104DF000E20084FF2BC080E189BD82E189BD09B456
:104E000000FEFDCF8091D8008F7D8093D8008091E7
:104E1000E1008F7E8093E1008091E2008F7E80939D
:104E2000E2008091E20081608093E2008091F901CC
:104E3000811509F452C084E080937B0480917B0447
:104E4000843009F052C082E0809316018091E10025
:104E500083FF2CC08091E20083FF28C08091E10095
:104E6000877F8093E10082E080937B041092F901B8
:104E70008091E1008E7F8093E1008091E2008E7F3F
:104E80008093E2008091E20080618093E20042E042
:104E900060E080E00E94AB098091F0008860809320
:104EA000F00081E08093160180931501FF91EF914E
:104EB000BF91AF919F918F917F916F915F914F9132
:104EC0003F912F910F900FBE0F901F90189519BC16
:104ED00010927B041092FA0168CF8091E30087FF63
:104EE00002C083E0A9CF81E0A7CF81E0ADCF1F92C0
:104EF0000F920FB60F9211241F932F933F934F934E
:104F00005F936F937F938F939F93AF93BF93CF9351
:104F1000DF93EF93FF93E9EEF0E080811091EC00D6
:104F20008F7010FB112717F9182B1082C0EFD0E0FB
:104F30008881877F888378940E947E16E9EEF0E06E
:104F400010828881886088831F701083FF91EF91A1
:104F5000DF91CF91BF91AF919F918F917F916F9191
:104F60005F914F913F912F911F910F900FBE0F9026
:104F70001F901895EF92FF921F93CF93DF93182FF6
:104F8000EB011092BC0084EA8093BC000E9447149D
:104F90007C018091BC0087FF26C08091B900887F8A
:104FA000883029F08091B900887F803189F510938D
:104FB000BB0084E88093BC000E9447147C01809170
:104FC000BC0087FF1EC02091B900287F80E090E0E0
:104FD000283189F081E090E0203409F480E0919557
:104FE0008195910908C0C7010E945314C817D907B9
:104FF00080F68EEF9FEFDF91CF911F91FF90EF90A2
:105000000895C7010E945314C817D907C0F6F1CFFD
:105010008FEF9FEFF0CF1092B9008CE08093B80033
:1050200008950F931F93CF93DF93EB018093BB0001
:1050300084E88093BC000E9447148C018091BC00DE
:1050400087FF10C02091B900287F81E090E02832CE
:1050500009F480E0919581959109DF91CF911F919D
:105060000F910895CF3FDC0749F3C8010E94531404
:10507000C817D90718F78EEF9FEFEFCFA0E0B0E089
:10508000E3E4F8E227C3982E862E772E6A01790191
:105090000E9447145C0184E1E816F10410F18FEFDF
:1050A000E816FE0409F1C70164E170E0FAD2162F98
:1050B000072F612F702F892D5DDFEC01892BB1F453
:1050C000082D172DC00ED11E0C151D0511F02097AF
:1050D000C1F084E98093BC00CE01CDB7DEB7EDE02E
:1050E00015C311E000E0E5CF15E0FCCF8FEFE81627
:1050F000FE04F9F2C5010E945314E816F906C8F639
:10510000DFCFB701F80181918F018BDFEC01DCCF9C
:10511000A0E0B0E0EDE8F8E2DDC2982E862E772E12
:105120006A0189010E9447145C010431110500F1F4
:105130000F3F100701F1C80164E170E0B2D2EB014A
:10514000BE01892D17DF7C01892BB9F4C82DD72D1D
:10515000CC0EDD1ECC15DD0519F0E114F104B9F01B
:1051600084E98093BC00C701CDB7DEB7EDE0CEC2C5
:10517000C1E0D0E0E5CFC5E0FCCF0F3F100701F361
:10518000C5010E94531408171907D0F6DFCFFE019E
:105190008491B80146DF7C012196DCCFA0E0B0E02D
:1051A000E3EDF8E296C2982E862E742E652E6901E4
:1051B000E8010E9447145C010431110508F10F3F1A
:1051C000100711F1C80164E170E06BD2F62EE72EF2
:1051D0006F2D7E2D892DCEDE8C01892BC1F0CF3F26
:1051E000DC07B1F3C5010E945314C817D90780F733
:1051F00084E98093BC00C801CDB7DEB7EEE085C27C
:10520000FF24F394E12CE4CF85E0F82EFBCFBE0120
:10521000882D07DF8C01E72CF62CCE0CDF1CEC145C
:10522000FD0431F30115110519F7BE01F701819154
:105230007F01F7DE8C01F3CF03D0E39528C0D4C003
:105240003FD0E8F3E894E0E0BB279F57F0F02AED69
:105250003FE049EC06C0EE0FBB0F661F771F881FAB
:1052600028F0B23A62077307840728F0B25A620B3B
:10527000730B840BE3959A9572F7803830F49A9506
:10528000BB0F661F771F881FD2F79048A1C0EF930E
:10529000E0FF06C0A2EA2AED3FE049EC5FEB3DD01B
:1052A000C5D00F90039401FC9058EEEDFDE59FC032
:1052B00057FD9058440F551F59F05F3F71F04795C7
:1052C000880F97FB991F61F09F3F79F087950895AC
:1052D000121613061406551FF2CF4695F1DF08C0CB
:1052E000161617061806991FF1CF869571056105E8
:1052F000089408959F93A4DF0F9007FCEE5FC7CF3B
:1053000087D030F08CD020F031F49F3F11F41EF4A0
:105310006BC00EF4E095E7FB53C0E92FC9DF80F3C3
:10532000BA17620773078407950718F071F49EF5A2
:105330008EC00EF4E0950B2EBA2FA02D0B01B901F3
:1053400090010C01CA01A0011124FF27591B99F0FB
:10535000593F50F4503E68F11A16F040A22F232F07
:10536000342F4427585FF3CF469537952795A79557
:10537000F0405395C9F77EF41F16BA0B620B730BFE
:10538000840BBAF09150A1F0FF0FBB1F661F771F6F
:10539000881FC2F70EC0BA0F621F731F841F48F424
:1053A000879577956795B795F7959E3F08F0B3CFAA
:1053B0009395880F08F09927EE0F97958795089594
:1053C00097F99F6780E870E060E008959F3F31F0B3
:1053D000915020F4879577956795B795880F911D23
:1053E0009695879597F908959FEF80EC08959F9380
:1053F0008F937F936F93FF93EF939B01AC012ED01C
:10540000EF91FF918ED02F913F914F915F9126C0E8
:1054100000240A9416161706180609060895002493
:105420000A9412161306140605060895092E03940D
:10543000000C11F4882352F0BB0F40F4BF2B11F481
:1054400060FF04C06F5F7F4F8F4F9F4F0895E894B8
:10545000BB2766277727CB0197F908950BD0E6CFB6
:10546000D7DF28F0DCDF18F0952309F0A9CFBCCFF7
:105470001124EECF1DDFA0F3959FD1F3950F50E0DF
:10548000551F629FF001729FBB27F00DB11D639FF6
:10549000AA27F00DB11DAA1F649F6627B00DA11D9C
:1054A000661F829F2227B00DA11D621F739FB00D42
:1054B000A11D621F839FA00D611D221F749F3327B2
:1054C000A00D611D231F849F600D211D822F762F4B
:1054D0006A2F11249F5750408AF0E1F088234AF048
:1054E000EE0FFF1FBB1F661F771F881F9150504094
:1054F000A9F79E3F510570F063CFAACF5F3FECF351
:10550000983EDCF3869577956795B795F795E7957F
:105510009F5FC1F7FE2B880F911D9695879597F990
:105520000895DF93CF931F930F93FF92EF92DF9233
:105530007B018C01689405C0DA2EEF019BDFFE0130
:10554000E894A5912591359145915591AEF3EF01E0
:10555000E4DEFE019701A801DA9479F7DF90EF907D
:10556000FF900F911F91CF91DF9108955058BB2765
:10557000AA27D3DE5BCF04D06894B11169CF089518
:105580009FDE88F09F5790F0B92F9927B751A0F070
:10559000D1F0660F771F881F991F1AF0BA95C9F7C7
:1055A00012C0B13081F053DFB1E0089550CF672FC2
:1055B000782F8827B85F39F0B93FCCF38695779577
:1055C0006795B395D9F73EF4909580957095619560
:1055D0007F4F8F4F9F4F0895E89409C097FB3EF48B
:1055E00090958095709561957F4F8F4F9F4F992330
:1055F000A9F0F92F96E9BB279395F69587957795AE
:105600006795B795F111F8CFFAF4BB0F11F460FF6D
:105610001BC06F5F7F4F8F4F9F4F16C0882311F0C5
:1056200096E911C0772321F09EE8872F762F05C0D9
:10563000662371F096E8862F70E060E02AF09A9574
:10564000660F771F881FDAF7880F9695879597F969
:10565000089503D008F48FEF0895990F0008550FAF
:10566000AA0BE0E8FEEF16161706E807F907C0F0E8
:1056700012161306E407F50798F0621B730B840BF0
:10568000950B39F40A2661F0232B242B252B21F4CA
:1056900008950A2609F4A140A6958FEF811D811D6A
:1056A0000895AA1BBB1B51E107C0AA1FBB1FA61769
:1056B000B70710F0A61BB70B881F991F5A95A9F7BB
:1056C00080959095BC01CD0108952F923F924F9205
:1056D0005F926F927F928F929F92AF92BF92CF9282
:1056E000DF92EF92FF920F931F93CF93DF93CDB78B
:1056F000DEB7CA1BDB0B0FB6F894DEBF0FBECDBF03
:1057000009942A88398848885F846E847D848C84D3
:105710009B84AA84B984C884DF80EE80FD800C81DC
:105720001B81AA81B981CE0FD11D0FB6F894DEBFBF
:105730000FBECDBFED010895992778E0880F991F1E
:10574000961708F0961B881F7A95C9F780950895DB
:1057500097FB072E16F4009406D077FD08D0A1DF42
:1057600007FC05D03EF4909581959F4F0895709564
:1057700061957F4F0895EE0FFF1F0590F491E02D86
:105780000994692796276927782787277827089516
:1057900090958095709561957F4F8F4F9F4F08959D
:1057A000FB01DC0102C005900D9241505040D8F73A
:1057B0000895FB01DC0104C08D910190801921F452
:1057C00041505040C8F7881B990B0895AEE0B0E0F7
:1057D000EBEEFBE28ACF86E08C832B893C89298320
:1057E0003A838D899E89813030E8930710F080E0FC
:1057F00090E801978D839E83AE01475E5F4F6F896E
:10580000788DCE01019612D04D815E8157FD0BC07F
:10581000EF81F8854E175F070CF4FA012B893C895C
:10582000E20FF31F10822E96E2E07BCFACE0B0E0F7
:10583000EBE1FCE24DCF5C016B017A01FC011682C9
:105840001782838181FFC4C12AE0522EF501238192
:10585000F60123FD859123FF81916F01811509F4E4
:1058600023C1853239F423FD959123FF91916F0176
:10587000953221F4B50190E0C4D1E8CF30E0712C2D
:1058800000E010E0103210F59B32C9F050F4903275
:10589000B9F09332C9F09E3261F516FD05C110646E
:1058A00005C09D3279F0903399F41160F60123FD23
:1058B000959123FF91916F019111E4CF23C0126064
:1058C0001460F4CF1860F2CF1061F0CF17FD1AC04A
:1058D00080ED890F8A30F8F616FF05C0759C800DA3
:1058E0001124782EE3CF059D800D1124082F10621E
:1058F000DDCF9C3611F41068D9CF9C3409F43EC03A
:105900009836A1F2892F8F7D85548330C8F1933664
:1059100009F45CC0933709F467C0933509F472C089
:10592000943619F0993609F09BC0F70117FF91C022
:1059300061917191819191917F011F7697FF02C0D2
:1059400027DF10682AE030E04E014FEF841A940AF6
:10595000A40196D1682E681816FFCBC0812F8E7FC8
:10596000671408F0C5C014FF13C112FD07C11E7EE5
:10597000972C812F867809F4C7C005C131E096CFF6
:10598000311501F1F8E0EF0EF11C8FE3898391E00E
:10599000692E712C4E018FEF881A980A1F7713FD1C
:1059A00004C06016710408F43CC06114710409F06D
:1059B0003EC0011509F44ACFB50180E290E021D143
:1059C0000150F7CF44E0E40EF11CDFCFF7018081F6
:1059D0008983F2E0EF0EF11C81E0682E712C4E01FC
:1059E0004FEF841A940ADACFF701819091907F01EA
:1059F000672D70E016FD02C06FEF7FEFC401F6D097
:105A00003C01CCCFF701819091907F01672D70E030
:105A100016FD02C06FEF7FEFC401DDD03C011068BE
:105A2000BECFB50180E290E0ECD00150BACFF401D6
:105A300017FD859117FF81914F01B50190E0E1D0ED
:105A400081E0011101C080E0081BF1E06F1A7108CC
:105A5000ACCF61917191872F880F880B982F6CCFF5
:105A60009537C1F41F7E1C872AE030E0FC85F7FFE4
:105A700039C0F70161917191819191917F014E013E
:105A80004FEF841A940AA401FBD0682E68181C8575
:105A90001F7762CF812F897F8C87903791F050F4E8
:105AA0009835B1F09F36D9F0F501868197812C9613
:105AB000EFE02ACE9837C1F714FD06C020E130E0B0
:105AC000D5CF9C8590619C87EC85E460EC87F6CF10
:105AD00014FF02C016601C8720E132E0C7CF28E027
